{
	"Scoring.sol": {
		"Scoring": {
			"abi": [
				{
					"inputs": [],
					"stateMutability": "nonpayable",
					"type": "constructor"
				},
				{
					"inputs": [],
					"name": "takesCards",
					"outputs": [
						{
							"components": [
								{
									"internalType": "uint8",
									"name": "id",
									"type": "uint8"
								},
								{
									"internalType": "uint256",
									"name": "youWin",
									"type": "uint256"
								},
								{
									"internalType": "uint256",
									"name": "opponentLoses",
									"type": "uint256"
								}
							],
							"internalType": "struct Scoring.SpecialCard[]",
							"name": "",
							"type": "tuple[]"
						},
						{
							"components": [
								{
									"internalType": "uint8",
									"name": "id",
									"type": "uint8"
								},
								{
									"internalType": "uint256",
									"name": "youWin",
									"type": "uint256"
								},
								{
									"internalType": "uint256",
									"name": "opponentLoses",
									"type": "uint256"
								}
							],
							"internalType": "struct Scoring.SpecialCard[]",
							"name": "",
							"type": "tuple[]"
						}
					],
					"stateMutability": "view",
					"type": "function"
				}
			],
			"devdoc": {
				"kind": "dev",
				"methods": {},
				"version": 1
			},
			"evm": {
				"assembly": "    /* \"Scoring.sol\":60:2622  contract Scoring... */\n  mstore(0x40, 0x80)\n    /* \"Scoring.sol\":228:248  SpecialCard(1, 0, 5) */\n  mload(0x40)\n  dup1\n  0x60\n  add\n  0x40\n  mstore\n  dup1\n    /* \"Scoring.sol\":240:241  1 */\n  0x01\n    /* \"Scoring.sol\":228:248  SpecialCard(1, 0, 5) */\n  0xff\n  and\n  dup2\n  mstore\n  0x20\n  add\n    /* \"Scoring.sol\":243:244  0 */\n  0x00\n    /* \"Scoring.sol\":228:248  SpecialCard(1, 0, 5) */\n  dup2\n  mstore\n  0x20\n  add\n    /* \"Scoring.sol\":246:247  5 */\n  0x05\n    /* \"Scoring.sol\":228:248  SpecialCard(1, 0, 5) */\n  dup2\n  mstore\n  pop\n    /* \"Scoring.sol\":196:248  SpecialCard opponentLosesFive = SpecialCard(1, 0, 5) */\n  0x00\n  dup1\n  dup3\n  add\n  mload\n  dup2\n  0x00\n  add\n  exp(0x0100, 0x00)\n  dup2\n  sload\n  dup2\n  0xff\n  mul\n  not\n  and\n  swap1\n  dup4\n  0xff\n  and\n  mul\n  or\n  swap1\n  sstore\n  pop\n  0x20\n  dup3\n  add\n  mload\n  dup2\n  0x01\n  add\n  sstore\n  0x40\n  dup3\n  add\n  mload\n  dup2\n  0x02\n  add\n  sstore\n  pop\n  pop\n    /* \"Scoring.sol\":280:300  SpecialCard(2, 5, 0) */\n  mload(0x40)\n  dup1\n  0x60\n  add\n  0x40\n  mstore\n  dup1\n    /* \"Scoring.sol\":292:293  2 */\n  0x02\n    /* \"Scoring.sol\":280:300  SpecialCard(2, 5, 0) */\n  0xff\n  and\n  dup2\n  mstore\n  0x20\n  add\n    /* \"Scoring.sol\":295:296  5 */\n  0x05\n    /* \"Scoring.sol\":280:300  SpecialCard(2, 5, 0) */\n  dup2\n  mstore\n  0x20\n  add\n    /* \"Scoring.sol\":298:299  0 */\n  0x00\n    /* \"Scoring.sol\":280:300  SpecialCard(2, 5, 0) */\n  dup2\n  mstore\n  pop\n    /* \"Scoring.sol\":255:300  SpecialCard youWinFive = SpecialCard(2, 5, 0) */\n  0x03\n  0x00\n  dup3\n  add\n  mload\n  dup2\n  0x00\n  add\n  exp(0x0100, 0x00)\n  dup2\n  sload\n  dup2\n  0xff\n  mul\n  not\n  and\n  swap1\n  dup4\n  0xff\n  and\n  mul\n  or\n  swap1\n  sstore\n  pop\n  0x20\n  dup3\n  add\n  mload\n  dup2\n  0x01\n  add\n  sstore\n  0x40\n  dup3\n  add\n  mload\n  dup2\n  0x02\n  add\n  sstore\n  pop\n  pop\n    /* \"Scoring.sol\":340:360  SpecialCard(3, 0, 3) */\n  mload(0x40)\n  dup1\n  0x60\n  add\n  0x40\n  mstore\n  dup1\n    /* \"Scoring.sol\":352:353  3 */\n  0x03\n    /* \"Scoring.sol\":340:360  SpecialCard(3, 0, 3) */\n  0xff\n  and\n  dup2\n  mstore\n  0x20\n  add\n    /* \"Scoring.sol\":355:356  0 */\n  0x00\n    /* \"Scoring.sol\":340:360  SpecialCard(3, 0, 3) */\n  dup2\n  mstore\n  0x20\n  add\n    /* \"Scoring.sol\":358:359  3 */\n  0x03\n    /* \"Scoring.sol\":340:360  SpecialCard(3, 0, 3) */\n  dup2\n  mstore\n  pop\n    /* \"Scoring.sol\":307:360  SpecialCard opponentLosesThree = SpecialCard(3, 0, 3) */\n  0x06\n  0x00\n  dup3\n  add\n  mload\n  dup2\n  0x00\n  add\n  exp(0x0100, 0x00)\n  dup2\n  sload\n  dup2\n  0xff\n  mul\n  not\n  and\n  swap1\n  dup4\n  0xff\n  and\n  mul\n  or\n  swap1\n  sstore\n  pop\n  0x20\n  dup3\n  add\n  mload\n  dup2\n  0x01\n  add\n  sstore\n  0x40\n  dup3\n  add\n  mload\n  dup2\n  0x02\n  add\n  sstore\n  pop\n  pop\n    /* \"Scoring.sol\":393:413  SpecialCard(4, 3, 0) */\n  mload(0x40)\n  dup1\n  0x60\n  add\n  0x40\n  mstore\n  dup1\n    /* \"Scoring.sol\":405:406  4 */\n  0x04\n    /* \"Scoring.sol\":393:413  SpecialCard(4, 3, 0) */\n  0xff\n  and\n  dup2\n  mstore\n  0x20\n  add\n    /* \"Scoring.sol\":408:409  3 */\n  0x03\n    /* \"Scoring.sol\":393:413  SpecialCard(4, 3, 0) */\n  dup2\n  mstore\n  0x20\n  add\n    /* \"Scoring.sol\":411:412  0 */\n  0x00\n    /* \"Scoring.sol\":393:413  SpecialCard(4, 3, 0) */\n  dup2\n  mstore\n  pop\n    /* \"Scoring.sol\":367:413  SpecialCard youWinThree = SpecialCard(4, 3, 0) */\n  0x09\n  0x00\n  dup3\n  add\n  mload\n  dup2\n  0x00\n  add\n  exp(0x0100, 0x00)\n  dup2\n  sload\n  dup2\n  0xff\n  mul\n  not\n  and\n  swap1\n  dup4\n  0xff\n  and\n  mul\n  or\n  swap1\n  sstore\n  pop\n  0x20\n  dup3\n  add\n  mload\n  dup2\n  0x01\n  add\n  sstore\n  0x40\n  dup3\n  add\n  mload\n  dup2\n  0x02\n  add\n  sstore\n  pop\n  pop\n    /* \"Scoring.sol\":461:481  SpecialCard(5, 2, 2) */\n  mload(0x40)\n  dup1\n  0x60\n  add\n  0x40\n  mstore\n  dup1\n    /* \"Scoring.sol\":473:474  5 */\n  0x05\n    /* \"Scoring.sol\":461:481  SpecialCard(5, 2, 2) */\n  0xff\n  and\n  dup2\n  mstore\n  0x20\n  add\n    /* \"Scoring.sol\":476:477  2 */\n  0x02\n    /* \"Scoring.sol\":461:481  SpecialCard(5, 2, 2) */\n  dup2\n  mstore\n  0x20\n  add\n    /* \"Scoring.sol\":479:480  2 */\n  0x02\n    /* \"Scoring.sol\":461:481  SpecialCard(5, 2, 2) */\n  dup2\n  mstore\n  pop\n    /* \"Scoring.sol\":420:481  SpecialCard youWinTwo_opponentLosesTwo = SpecialCard(5, 2, 2) */\n  0x0c\n  0x00\n  dup3\n  add\n  mload\n  dup2\n  0x00\n  add\n  exp(0x0100, 0x00)\n  dup2\n  sload\n  dup2\n  0xff\n  mul\n  not\n  and\n  swap1\n  dup4\n  0xff\n  and\n  mul\n  or\n  swap1\n  sstore\n  pop\n  0x20\n  dup3\n  add\n  mload\n  dup2\n  0x01\n  add\n  sstore\n  0x40\n  dup3\n  add\n  mload\n  dup2\n  0x02\n  add\n  sstore\n  pop\n  pop\n    /* \"Scoring.sol\":519:539  SpecialCard(6, 0, 2) */\n  mload(0x40)\n  dup1\n  0x60\n  add\n  0x40\n  mstore\n  dup1\n    /* \"Scoring.sol\":531:532  6 */\n  0x06\n    /* \"Scoring.sol\":519:539  SpecialCard(6, 0, 2) */\n  0xff\n  and\n  dup2\n  mstore\n  0x20\n  add\n    /* \"Scoring.sol\":534:535  0 */\n  0x00\n    /* \"Scoring.sol\":519:539  SpecialCard(6, 0, 2) */\n  dup2\n  mstore\n  0x20\n  add\n    /* \"Scoring.sol\":537:538  2 */\n  0x02\n    /* \"Scoring.sol\":519:539  SpecialCard(6, 0, 2) */\n  dup2\n  mstore\n  pop\n    /* \"Scoring.sol\":488:539  SpecialCard opponentLosesTwo = SpecialCard(6, 0, 2) */\n  0x0f\n  0x00\n  dup3\n  add\n  mload\n  dup2\n  0x00\n  add\n  exp(0x0100, 0x00)\n  dup2\n  sload\n  dup2\n  0xff\n  mul\n  not\n  and\n  swap1\n  dup4\n  0xff\n  and\n  mul\n  or\n  swap1\n  sstore\n  pop\n  0x20\n  dup3\n  add\n  mload\n  dup2\n  0x01\n  add\n  sstore\n  0x40\n  dup3\n  add\n  mload\n  dup2\n  0x02\n  add\n  sstore\n  pop\n  pop\n    /* \"Scoring.sol\":570:590  SpecialCard(7, 2, 0) */\n  mload(0x40)\n  dup1\n  0x60\n  add\n  0x40\n  mstore\n  dup1\n    /* \"Scoring.sol\":582:583  7 */\n  0x07\n    /* \"Scoring.sol\":570:590  SpecialCard(7, 2, 0) */\n  0xff\n  and\n  dup2\n  mstore\n  0x20\n  add\n    /* \"Scoring.sol\":585:586  2 */\n  0x02\n    /* \"Scoring.sol\":570:590  SpecialCard(7, 2, 0) */\n  dup2\n  mstore\n  0x20\n  add\n    /* \"Scoring.sol\":588:589  0 */\n  0x00\n    /* \"Scoring.sol\":570:590  SpecialCard(7, 2, 0) */\n  dup2\n  mstore\n  pop\n    /* \"Scoring.sol\":546:590  SpecialCard youWinTwo = SpecialCard(7, 2, 0) */\n  0x12\n  0x00\n  dup3\n  add\n  mload\n  dup2\n  0x00\n  add\n  exp(0x0100, 0x00)\n  dup2\n  sload\n  dup2\n  0xff\n  mul\n  not\n  and\n  swap1\n  dup4\n  0xff\n  and\n  mul\n  or\n  swap1\n  sstore\n  pop\n  0x20\n  dup3\n  add\n  mload\n  dup2\n  0x01\n  add\n  sstore\n  0x40\n  dup3\n  add\n  mload\n  dup2\n  0x02\n  add\n  sstore\n  pop\n  pop\n    /* \"Scoring.sol\":640:660  SpecialCard(8, 1, 3) */\n  mload(0x40)\n  dup1\n  0x60\n  add\n  0x40\n  mstore\n  dup1\n    /* \"Scoring.sol\":652:653  8 */\n  0x08\n    /* \"Scoring.sol\":640:660  SpecialCard(8, 1, 3) */\n  0xff\n  and\n  dup2\n  mstore\n  0x20\n  add\n    /* \"Scoring.sol\":655:656  1 */\n  0x01\n    /* \"Scoring.sol\":640:660  SpecialCard(8, 1, 3) */\n  dup2\n  mstore\n  0x20\n  add\n    /* \"Scoring.sol\":658:659  3 */\n  0x03\n    /* \"Scoring.sol\":640:660  SpecialCard(8, 1, 3) */\n  dup2\n  mstore\n  pop\n    /* \"Scoring.sol\":597:660  SpecialCard youWinOne_opponentLosesThree = SpecialCard(8, 1, 3) */\n  0x15\n  0x00\n  dup3\n  add\n  mload\n  dup2\n  0x00\n  add\n  exp(0x0100, 0x00)\n  dup2\n  sload\n  dup2\n  0xff\n  mul\n  not\n  and\n  swap1\n  dup4\n  0xff\n  and\n  mul\n  or\n  swap1\n  sstore\n  pop\n  0x20\n  dup3\n  add\n  mload\n  dup2\n  0x01\n  add\n  sstore\n  0x40\n  dup3\n  add\n  mload\n  dup2\n  0x02\n  add\n  sstore\n  pop\n  pop\n    /* \"Scoring.sol\":710:730  SpecialCard(9, 3, 1) */\n  mload(0x40)\n  dup1\n  0x60\n  add\n  0x40\n  mstore\n  dup1\n    /* \"Scoring.sol\":722:723  9 */\n  0x09\n    /* \"Scoring.sol\":710:730  SpecialCard(9, 3, 1) */\n  0xff\n  and\n  dup2\n  mstore\n  0x20\n  add\n    /* \"Scoring.sol\":725:726  3 */\n  0x03\n    /* \"Scoring.sol\":710:730  SpecialCard(9, 3, 1) */\n  dup2\n  mstore\n  0x20\n  add\n    /* \"Scoring.sol\":728:729  1 */\n  0x01\n    /* \"Scoring.sol\":710:730  SpecialCard(9, 3, 1) */\n  dup2\n  mstore\n  pop\n    /* \"Scoring.sol\":667:730  SpecialCard youWinThree_opponentLosesOne = SpecialCard(9, 3, 1) */\n  0x18\n  0x00\n  dup3\n  add\n  mload\n  dup2\n  0x00\n  add\n  exp(0x0100, 0x00)\n  dup2\n  sload\n  dup2\n  0xff\n  mul\n  not\n  and\n  swap1\n  dup4\n  0xff\n  and\n  mul\n  or\n  swap1\n  sstore\n  pop\n  0x20\n  dup3\n  add\n  mload\n  dup2\n  0x01\n  add\n  sstore\n  0x40\n  dup3\n  add\n  mload\n  dup2\n  0x02\n  add\n  sstore\n  pop\n  pop\n    /* \"Scoring.sol\":762:783  SpecialCard(10, 4, 0) */\n  mload(0x40)\n  dup1\n  0x60\n  add\n  0x40\n  mstore\n  dup1\n    /* \"Scoring.sol\":774:776  10 */\n  0x0a\n    /* \"Scoring.sol\":762:783  SpecialCard(10, 4, 0) */\n  0xff\n  and\n  dup2\n  mstore\n  0x20\n  add\n    /* \"Scoring.sol\":778:779  4 */\n  0x04\n    /* \"Scoring.sol\":762:783  SpecialCard(10, 4, 0) */\n  dup2\n  mstore\n  0x20\n  add\n    /* \"Scoring.sol\":781:782  0 */\n  0x00\n    /* \"Scoring.sol\":762:783  SpecialCard(10, 4, 0) */\n  dup2\n  mstore\n  pop\n    /* \"Scoring.sol\":737:783  SpecialCard youWinFour = SpecialCard(10, 4, 0) */\n  0x1b\n  0x00\n  dup3\n  add\n  mload\n  dup2\n  0x00\n  add\n  exp(0x0100, 0x00)\n  dup2\n  sload\n  dup2\n  0xff\n  mul\n  not\n  and\n  swap1\n  dup4\n  0xff\n  and\n  mul\n  or\n  swap1\n  sstore\n  pop\n  0x20\n  dup3\n  add\n  mload\n  dup2\n  0x01\n  add\n  sstore\n  0x40\n  dup3\n  add\n  mload\n  dup2\n  0x02\n  add\n  sstore\n  pop\n  pop\n    /* \"Scoring.sol\":792:814  constructor() {... */\n  callvalue\n  dup1\n  iszero\n  tag_1\n  jumpi\n  0x00\n  dup1\n  revert\ntag_1:\n  pop\n    /* \"Scoring.sol\":60:2622  contract Scoring... */\n  dataSize(sub_0)\n  dup1\n  dataOffset(sub_0)\n  0x00\n  codecopy\n  0x00\n  return\nstop\n\nsub_0: assembly {\n        /* \"Scoring.sol\":60:2622  contract Scoring... */\n      mstore(0x40, 0x80)\n      callvalue\n      dup1\n      iszero\n      tag_1\n      jumpi\n      0x00\n      dup1\n      revert\n    tag_1:\n      pop\n      jumpi(tag_2, lt(calldatasize, 0x04))\n      shr(0xe0, calldataload(0x00))\n      dup1\n      0x050877b7\n      eq\n      tag_3\n      jumpi\n    tag_2:\n      0x00\n      dup1\n      revert\n        /* \"Scoring.sol\":822:1122  function takesCards() public view returns(SpecialCard[] memory, SpecialCard[] memory) {... */\n    tag_3:\n      tag_4\n      tag_5\n      jump\t// in\n    tag_4:\n      mload(0x40)\n      tag_6\n      swap3\n      swap2\n      swap1\n      tag_7\n      jump\t// in\n    tag_6:\n      mload(0x40)\n      dup1\n      swap2\n      sub\n      swap1\n      return\n    tag_5:\n        /* \"Scoring.sol\":864:884  SpecialCard[] memory */\n      0x60\n        /* \"Scoring.sol\":886:906  SpecialCard[] memory */\n      dup1\n        /* \"Scoring.sol\":919:952  SpecialCard[] memory cardsPlayer1 */\n      0x00\n        /* \"Scoring.sol\":955:988  generateRandomNumbersForPlayer(1) */\n      tag_9\n        /* \"Scoring.sol\":986:987  1 */\n      0x01\n        /* \"Scoring.sol\":955:985  generateRandomNumbersForPlayer */\n      tag_10\n        /* \"Scoring.sol\":955:988  generateRandomNumbersForPlayer(1) */\n      jump\t// in\n    tag_9:\n        /* \"Scoring.sol\":919:988  SpecialCard[] memory cardsPlayer1 = generateRandomNumbersForPlayer(1) */\n      swap1\n      pop\n        /* \"Scoring.sol\":999:1032  SpecialCard[] memory cardsPlayer2 */\n      0x00\n        /* \"Scoring.sol\":1035:1068  generateRandomNumbersForPlayer(2) */\n      tag_11\n        /* \"Scoring.sol\":1066:1067  2 */\n      0x02\n        /* \"Scoring.sol\":1035:1065  generateRandomNumbersForPlayer */\n      tag_10\n        /* \"Scoring.sol\":1035:1068  generateRandomNumbersForPlayer(2) */\n      jump\t// in\n    tag_11:\n        /* \"Scoring.sol\":999:1068  SpecialCard[] memory cardsPlayer2 = generateRandomNumbersForPlayer(2) */\n      swap1\n      pop\n        /* \"Scoring.sol\":1087:1099  cardsPlayer1 */\n      dup2\n        /* \"Scoring.sol\":1101:1113  cardsPlayer2 */\n      dup2\n        /* \"Scoring.sol\":1079:1114  return (cardsPlayer1, cardsPlayer2) */\n      swap4\n      pop\n      swap4\n      pop\n      pop\n      pop\n        /* \"Scoring.sol\":822:1122  function takesCards() public view returns(SpecialCard[] memory, SpecialCard[] memory) {... */\n      swap1\n      swap2\n      jump\t// out\n        /* \"Scoring.sol\":1796:2615  function generateRandomNumbersForPlayer(uint256 numero) private view returns (SpecialCard[] memory) {... */\n    tag_10:\n        /* \"Scoring.sol\":1874:1894  SpecialCard[] memory */\n      0x60\n        /* \"Scoring.sol\":1907:1949  SpecialCard[] memory specialCardsForPlayer */\n      0x00\n        /* \"Scoring.sol\":1970:1971  5 */\n      0x05\n        /* \"Scoring.sol\":1952:1972  new SpecialCard[](5) */\n      0xffffffffffffffff\n      dup2\n      gt\n      iszero\n      tag_13\n      jumpi\n      tag_14\n      tag_15\n      jump\t// in\n    tag_14:\n    tag_13:\n      mload(0x40)\n      swap1\n      dup1\n      dup3\n      mstore\n      dup1\n      0x20\n      mul\n      0x20\n      add\n      dup3\n      add\n      0x40\n      mstore\n      dup1\n      iszero\n      tag_16\n      jumpi\n      dup2\n      0x20\n      add\n    tag_17:\n      tag_18\n      tag_19\n      jump\t// in\n    tag_18:\n      dup2\n      mstore\n      0x20\n      add\n      swap1\n      0x01\n      swap1\n      sub\n      swap1\n      dup2\n      tag_17\n      jumpi\n      swap1\n      pop\n    tag_16:\n      pop\n        /* \"Scoring.sol\":1907:1972  SpecialCard[] memory specialCardsForPlayer = new SpecialCard[](5) */\n      swap1\n      pop\n        /* \"Scoring.sol\":1983:2013  uint256[] memory ramdomNumbers */\n      0x00\n        /* \"Scoring.sol\":2030:2031  5 */\n      0x05\n        /* \"Scoring.sol\":2016:2032  new uint256[](5) */\n      0xffffffffffffffff\n      dup2\n      gt\n      iszero\n      tag_20\n      jumpi\n      tag_21\n      tag_15\n      jump\t// in\n    tag_21:\n    tag_20:\n      mload(0x40)\n      swap1\n      dup1\n      dup3\n      mstore\n      dup1\n      0x20\n      mul\n      0x20\n      add\n      dup3\n      add\n      0x40\n      mstore\n      dup1\n      iszero\n      tag_22\n      jumpi\n      dup2\n      0x20\n      add\n      0x20\n      dup3\n      mul\n      dup1\n      calldatasize\n      dup4\n      calldatacopy\n      dup1\n      dup3\n      add\n      swap2\n      pop\n      pop\n      swap1\n      pop\n    tag_22:\n      pop\n        /* \"Scoring.sol\":1983:2032  uint256[] memory ramdomNumbers = new uint256[](5) */\n      swap1\n      pop\n        /* \"Scoring.sol\":2045:2063  uint256 randomSeed */\n      0x00\n        /* \"Scoring.sol\":2066:2081  block.timestamp */\n      timestamp\n        /* \"Scoring.sol\":2045:2081  uint256 randomSeed = block.timestamp */\n      swap1\n      pop\n        /* \"Scoring.sol\":2126:2128  10 */\n      0x0a\n        /* \"Scoring.sol\":2113:2123  randomSeed */\n      dup2\n        /* \"Scoring.sol\":2113:2128  randomSeed % 10 */\n      tag_23\n      swap2\n      swap1\n      tag_24\n      jump\t// in\n    tag_23:\n        /* \"Scoring.sol\":2094:2107  ramdomNumbers */\n      dup3\n        /* \"Scoring.sol\":2108:2109  0 */\n      0x00\n        /* \"Scoring.sol\":2094:2110  ramdomNumbers[0] */\n      dup2\n      mload\n      dup2\n      lt\n      tag_25\n      jumpi\n      tag_26\n      tag_27\n      jump\t// in\n    tag_26:\n    tag_25:\n      0x20\n      mul\n      0x20\n      add\n      add\n        /* \"Scoring.sol\":2094:2128  ramdomNumbers[0] = randomSeed % 10 */\n      dup2\n      dup2\n      mstore\n      pop\n      pop\n        /* \"Scoring.sol\":2171:2172  9 */\n      0x09\n        /* \"Scoring.sol\":2158:2168  randomSeed */\n      dup2\n        /* \"Scoring.sol\":2158:2172  randomSeed % 9 */\n      tag_28\n      swap2\n      swap1\n      tag_24\n      jump\t// in\n    tag_28:\n        /* \"Scoring.sol\":2139:2152  ramdomNumbers */\n      dup3\n        /* \"Scoring.sol\":2153:2154  1 */\n      0x01\n        /* \"Scoring.sol\":2139:2155  ramdomNumbers[1] */\n      dup2\n      mload\n      dup2\n      lt\n      tag_29\n      jumpi\n      tag_30\n      tag_27\n      jump\t// in\n    tag_30:\n    tag_29:\n      0x20\n      mul\n      0x20\n      add\n      add\n        /* \"Scoring.sol\":2139:2172  ramdomNumbers[1] = randomSeed % 9 */\n      dup2\n      dup2\n      mstore\n      pop\n      pop\n        /* \"Scoring.sol\":2215:2216  8 */\n      0x08\n        /* \"Scoring.sol\":2202:2212  randomSeed */\n      dup2\n        /* \"Scoring.sol\":2202:2216  randomSeed % 8 */\n      tag_31\n      swap2\n      swap1\n      tag_24\n      jump\t// in\n    tag_31:\n        /* \"Scoring.sol\":2183:2196  ramdomNumbers */\n      dup3\n        /* \"Scoring.sol\":2197:2198  2 */\n      0x02\n        /* \"Scoring.sol\":2183:2199  ramdomNumbers[2] */\n      dup2\n      mload\n      dup2\n      lt\n      tag_32\n      jumpi\n      tag_33\n      tag_27\n      jump\t// in\n    tag_33:\n    tag_32:\n      0x20\n      mul\n      0x20\n      add\n      add\n        /* \"Scoring.sol\":2183:2216  ramdomNumbers[2] = randomSeed % 8 */\n      dup2\n      dup2\n      mstore\n      pop\n      pop\n        /* \"Scoring.sol\":2259:2260  7 */\n      0x07\n        /* \"Scoring.sol\":2246:2256  randomSeed */\n      dup2\n        /* \"Scoring.sol\":2246:2260  randomSeed % 7 */\n      tag_34\n      swap2\n      swap1\n      tag_24\n      jump\t// in\n    tag_34:\n        /* \"Scoring.sol\":2227:2240  ramdomNumbers */\n      dup3\n        /* \"Scoring.sol\":2241:2242  3 */\n      0x03\n        /* \"Scoring.sol\":2227:2243  ramdomNumbers[3] */\n      dup2\n      mload\n      dup2\n      lt\n      tag_35\n      jumpi\n      tag_36\n      tag_27\n      jump\t// in\n    tag_36:\n    tag_35:\n      0x20\n      mul\n      0x20\n      add\n      add\n        /* \"Scoring.sol\":2227:2260  ramdomNumbers[3] = randomSeed % 7 */\n      dup2\n      dup2\n      mstore\n      pop\n      pop\n        /* \"Scoring.sol\":2303:2304  6 */\n      0x06\n        /* \"Scoring.sol\":2290:2300  randomSeed */\n      dup2\n        /* \"Scoring.sol\":2290:2304  randomSeed % 6 */\n      tag_37\n      swap2\n      swap1\n      tag_24\n      jump\t// in\n    tag_37:\n        /* \"Scoring.sol\":2271:2284  ramdomNumbers */\n      dup3\n        /* \"Scoring.sol\":2285:2286  4 */\n      0x04\n        /* \"Scoring.sol\":2271:2287  ramdomNumbers[4] */\n      dup2\n      mload\n      dup2\n      lt\n      tag_38\n      jumpi\n      tag_39\n      tag_27\n      jump\t// in\n    tag_39:\n    tag_38:\n      0x20\n      mul\n      0x20\n      add\n      add\n        /* \"Scoring.sol\":2271:2304  ramdomNumbers[4] = randomSeed % 6 */\n      dup2\n      dup2\n      mstore\n      pop\n      pop\n        /* \"Scoring.sol\":2322:2331  uint256 i */\n      0x00\n        /* \"Scoring.sol\":2317:2567  for (uint256 i = 0; i < ramdomNumbers.length; i++) {... */\n    tag_40:\n        /* \"Scoring.sol\":2341:2354  ramdomNumbers */\n      dup3\n        /* \"Scoring.sol\":2341:2361  ramdomNumbers.length */\n      mload\n        /* \"Scoring.sol\":2337:2338  i */\n      dup2\n        /* \"Scoring.sol\":2337:2361  i < ramdomNumbers.length */\n      lt\n        /* \"Scoring.sol\":2317:2567  for (uint256 i = 0; i < ramdomNumbers.length; i++) {... */\n      iszero\n      tag_41\n      jumpi\n        /* \"Scoring.sol\":2415:2417  10 */\n      0x0a\n        /* \"Scoring.sol\":2406:2412  numero */\n      dup7\n        /* \"Scoring.sol\":2387:2400  ramdomNumbers */\n      dup5\n        /* \"Scoring.sol\":2401:2402  i */\n      dup4\n        /* \"Scoring.sol\":2387:2403  ramdomNumbers[i] */\n      dup2\n      mload\n      dup2\n      lt\n      tag_43\n      jumpi\n      tag_44\n      tag_27\n      jump\t// in\n    tag_44:\n    tag_43:\n      0x20\n      mul\n      0x20\n      add\n      add\n      mload\n        /* \"Scoring.sol\":2387:2412  ramdomNumbers[i] + numero */\n      tag_45\n      swap2\n      swap1\n      tag_46\n      jump\t// in\n    tag_45:\n        /* \"Scoring.sol\":2387:2417  ramdomNumbers[i] + numero < 10 */\n      lt\n        /* \"Scoring.sol\":2383:2480  if (ramdomNumbers[i] + numero < 10) {... */\n      iszero\n      tag_47\n      jumpi\n        /* \"Scoring.sol\":2458:2464  numero */\n      dup6\n        /* \"Scoring.sol\":2438:2451  ramdomNumbers */\n      dup4\n        /* \"Scoring.sol\":2452:2453  i */\n      dup3\n        /* \"Scoring.sol\":2438:2454  ramdomNumbers[i] */\n      dup2\n      mload\n      dup2\n      lt\n      tag_48\n      jumpi\n      tag_49\n      tag_27\n      jump\t// in\n    tag_49:\n    tag_48:\n      0x20\n      mul\n      0x20\n      add\n      add\n        /* \"Scoring.sol\":2438:2464  ramdomNumbers[i] += numero */\n      dup2\n      dup2\n      mload\n      tag_50\n      swap2\n      swap1\n      tag_46\n      jump\t// in\n    tag_50:\n      swap2\n      pop\n      dup2\n      dup2\n      mstore\n      pop\n      pop\n        /* \"Scoring.sol\":2383:2480  if (ramdomNumbers[i] + numero < 10) {... */\n    tag_47:\n        /* \"Scoring.sol\":2523:2555  getSpecialCard(ramdomNumbers[i]) */\n      tag_51\n        /* \"Scoring.sol\":2538:2551  ramdomNumbers */\n      dup4\n        /* \"Scoring.sol\":2552:2553  i */\n      dup3\n        /* \"Scoring.sol\":2538:2554  ramdomNumbers[i] */\n      dup2\n      mload\n      dup2\n      lt\n      tag_52\n      jumpi\n      tag_53\n      tag_27\n      jump\t// in\n    tag_53:\n    tag_52:\n      0x20\n      mul\n      0x20\n      add\n      add\n      mload\n        /* \"Scoring.sol\":2523:2537  getSpecialCard */\n      tag_54\n        /* \"Scoring.sol\":2523:2555  getSpecialCard(ramdomNumbers[i]) */\n      jump\t// in\n    tag_51:\n        /* \"Scoring.sol\":2496:2517  specialCardsForPlayer */\n      dup5\n        /* \"Scoring.sol\":2518:2519  i */\n      dup3\n        /* \"Scoring.sol\":2496:2520  specialCardsForPlayer[i] */\n      dup2\n      mload\n      dup2\n      lt\n      tag_55\n      jumpi\n      tag_56\n      tag_27\n      jump\t// in\n    tag_56:\n    tag_55:\n      0x20\n      mul\n      0x20\n      add\n      add\n        /* \"Scoring.sol\":2496:2555  specialCardsForPlayer[i] = getSpecialCard(ramdomNumbers[i]) */\n      dup2\n      swap1\n      mstore\n      pop\n        /* \"Scoring.sol\":2363:2366  i++ */\n      dup1\n      dup1\n      0x01\n      add\n      swap2\n      pop\n      pop\n        /* \"Scoring.sol\":2317:2567  for (uint256 i = 0; i < ramdomNumbers.length; i++) {... */\n      jump(tag_40)\n    tag_41:\n      pop\n        /* \"Scoring.sol\":2586:2607  specialCardsForPlayer */\n      dup3\n        /* \"Scoring.sol\":2579:2607  return specialCardsForPlayer */\n      swap4\n      pop\n      pop\n      pop\n      pop\n        /* \"Scoring.sol\":1796:2615  function generateRandomNumbersForPlayer(uint256 numero) private view returns (SpecialCard[] memory) {... */\n      swap2\n      swap1\n      pop\n      jump\t// out\n        /* \"Scoring.sol\":1130:1788  function getSpecialCard(uint256 index) private view returns(SpecialCard memory) {... */\n    tag_54:\n        /* \"Scoring.sol\":1190:1208  SpecialCard memory */\n      tag_57\n      tag_19\n      jump\t// in\n    tag_57:\n        /* \"Scoring.sol\":1221:1254  SpecialCard[] memory specialCards */\n      0x00\n        /* \"Scoring.sol\":1275:1277  10 */\n      0x0a\n        /* \"Scoring.sol\":1257:1278  new SpecialCard[](10) */\n      0xffffffffffffffff\n      dup2\n      gt\n      iszero\n      tag_59\n      jumpi\n      tag_60\n      tag_15\n      jump\t// in\n    tag_60:\n    tag_59:\n      mload(0x40)\n      swap1\n      dup1\n      dup3\n      mstore\n      dup1\n      0x20\n      mul\n      0x20\n      add\n      dup3\n      add\n      0x40\n      mstore\n      dup1\n      iszero\n      tag_61\n      jumpi\n      dup2\n      0x20\n      add\n    tag_62:\n      tag_63\n      tag_19\n      jump\t// in\n    tag_63:\n      dup2\n      mstore\n      0x20\n      add\n      swap1\n      0x01\n      swap1\n      sub\n      swap1\n      dup2\n      tag_62\n      jumpi\n      swap1\n      pop\n    tag_61:\n      pop\n        /* \"Scoring.sol\":1221:1278  SpecialCard[] memory specialCards = new SpecialCard[](10) */\n      swap1\n      pop\n        /* \"Scoring.sol\":1307:1324  opponentLosesFive */\n      0x00\n        /* \"Scoring.sol\":1289:1324  specialCards[0] = opponentLosesFive */\n      mload(0x40)\n      dup1\n      0x60\n      add\n      0x40\n      mstore\n      swap1\n      dup2\n      0x00\n      dup3\n      add\n      0x00\n      swap1\n      sload\n      swap1\n      0x0100\n      exp\n      swap1\n      div\n      0xff\n      and\n      0xff\n      and\n      0xff\n      and\n      dup2\n      mstore\n      0x20\n      add\n      0x01\n      dup3\n      add\n      sload\n      dup2\n      mstore\n      0x20\n      add\n      0x02\n      dup3\n      add\n      sload\n      dup2\n      mstore\n      pop\n      pop\n        /* \"Scoring.sol\":1289:1301  specialCards */\n      dup2\n        /* \"Scoring.sol\":1302:1303  0 */\n      0x00\n        /* \"Scoring.sol\":1289:1304  specialCards[0] */\n      dup2\n      mload\n      dup2\n      lt\n      tag_64\n      jumpi\n      tag_65\n      tag_27\n      jump\t// in\n    tag_65:\n    tag_64:\n      0x20\n      mul\n      0x20\n      add\n      add\n        /* \"Scoring.sol\":1289:1324  specialCards[0] = opponentLosesFive */\n      dup2\n      swap1\n      mstore\n      pop\n        /* \"Scoring.sol\":1353:1363  youWinFive */\n      0x03\n        /* \"Scoring.sol\":1335:1363  specialCards[1] = youWinFive */\n      mload(0x40)\n      dup1\n      0x60\n      add\n      0x40\n      mstore\n      swap1\n      dup2\n      0x00\n      dup3\n      add\n      0x00\n      swap1\n      sload\n      swap1\n      0x0100\n      exp\n      swap1\n      div\n      0xff\n      and\n      0xff\n      and\n      0xff\n      and\n      dup2\n      mstore\n      0x20\n      add\n      0x01\n      dup3\n      add\n      sload\n      dup2\n      mstore\n      0x20\n      add\n      0x02\n      dup3\n      add\n      sload\n      dup2\n      mstore\n      pop\n      pop\n        /* \"Scoring.sol\":1335:1347  specialCards */\n      dup2\n        /* \"Scoring.sol\":1348:1349  1 */\n      0x01\n        /* \"Scoring.sol\":1335:1350  specialCards[1] */\n      dup2\n      mload\n      dup2\n      lt\n      tag_66\n      jumpi\n      tag_67\n      tag_27\n      jump\t// in\n    tag_67:\n    tag_66:\n      0x20\n      mul\n      0x20\n      add\n      add\n        /* \"Scoring.sol\":1335:1363  specialCards[1] = youWinFive */\n      dup2\n      swap1\n      mstore\n      pop\n        /* \"Scoring.sol\":1392:1410  opponentLosesThree */\n      0x06\n        /* \"Scoring.sol\":1374:1410  specialCards[2] = opponentLosesThree */\n      mload(0x40)\n      dup1\n      0x60\n      add\n      0x40\n      mstore\n      swap1\n      dup2\n      0x00\n      dup3\n      add\n      0x00\n      swap1\n      sload\n      swap1\n      0x0100\n      exp\n      swap1\n      div\n      0xff\n      and\n      0xff\n      and\n      0xff\n      and\n      dup2\n      mstore\n      0x20\n      add\n      0x01\n      dup3\n      add\n      sload\n      dup2\n      mstore\n      0x20\n      add\n      0x02\n      dup3\n      add\n      sload\n      dup2\n      mstore\n      pop\n      pop\n        /* \"Scoring.sol\":1374:1386  specialCards */\n      dup2\n        /* \"Scoring.sol\":1387:1388  2 */\n      0x02\n        /* \"Scoring.sol\":1374:1389  specialCards[2] */\n      dup2\n      mload\n      dup2\n      lt\n      tag_68\n      jumpi\n      tag_69\n      tag_27\n      jump\t// in\n    tag_69:\n    tag_68:\n      0x20\n      mul\n      0x20\n      add\n      add\n        /* \"Scoring.sol\":1374:1410  specialCards[2] = opponentLosesThree */\n      dup2\n      swap1\n      mstore\n      pop\n        /* \"Scoring.sol\":1439:1450  youWinThree */\n      0x09\n        /* \"Scoring.sol\":1421:1450  specialCards[3] = youWinThree */\n      mload(0x40)\n      dup1\n      0x60\n      add\n      0x40\n      mstore\n      swap1\n      dup2\n      0x00\n      dup3\n      add\n      0x00\n      swap1\n      sload\n      swap1\n      0x0100\n      exp\n      swap1\n      div\n      0xff\n      and\n      0xff\n      and\n      0xff\n      and\n      dup2\n      mstore\n      0x20\n      add\n      0x01\n      dup3\n      add\n      sload\n      dup2\n      mstore\n      0x20\n      add\n      0x02\n      dup3\n      add\n      sload\n      dup2\n      mstore\n      pop\n      pop\n        /* \"Scoring.sol\":1421:1433  specialCards */\n      dup2\n        /* \"Scoring.sol\":1434:1435  3 */\n      0x03\n        /* \"Scoring.sol\":1421:1436  specialCards[3] */\n      dup2\n      mload\n      dup2\n      lt\n      tag_70\n      jumpi\n      tag_71\n      tag_27\n      jump\t// in\n    tag_71:\n    tag_70:\n      0x20\n      mul\n      0x20\n      add\n      add\n        /* \"Scoring.sol\":1421:1450  specialCards[3] = youWinThree */\n      dup2\n      swap1\n      mstore\n      pop\n        /* \"Scoring.sol\":1479:1505  youWinTwo_opponentLosesTwo */\n      0x0c\n        /* \"Scoring.sol\":1461:1505  specialCards[4] = youWinTwo_opponentLosesTwo */\n      mload(0x40)\n      dup1\n      0x60\n      add\n      0x40\n      mstore\n      swap1\n      dup2\n      0x00\n      dup3\n      add\n      0x00\n      swap1\n      sload\n      swap1\n      0x0100\n      exp\n      swap1\n      div\n      0xff\n      and\n      0xff\n      and\n      0xff\n      and\n      dup2\n      mstore\n      0x20\n      add\n      0x01\n      dup3\n      add\n      sload\n      dup2\n      mstore\n      0x20\n      add\n      0x02\n      dup3\n      add\n      sload\n      dup2\n      mstore\n      pop\n      pop\n        /* \"Scoring.sol\":1461:1473  specialCards */\n      dup2\n        /* \"Scoring.sol\":1474:1475  4 */\n      0x04\n        /* \"Scoring.sol\":1461:1476  specialCards[4] */\n      dup2\n      mload\n      dup2\n      lt\n      tag_72\n      jumpi\n      tag_73\n      tag_27\n      jump\t// in\n    tag_73:\n    tag_72:\n      0x20\n      mul\n      0x20\n      add\n      add\n        /* \"Scoring.sol\":1461:1505  specialCards[4] = youWinTwo_opponentLosesTwo */\n      dup2\n      swap1\n      mstore\n      pop\n        /* \"Scoring.sol\":1534:1550  opponentLosesTwo */\n      0x0f\n        /* \"Scoring.sol\":1516:1550  specialCards[5] = opponentLosesTwo */\n      mload(0x40)\n      dup1\n      0x60\n      add\n      0x40\n      mstore\n      swap1\n      dup2\n      0x00\n      dup3\n      add\n      0x00\n      swap1\n      sload\n      swap1\n      0x0100\n      exp\n      swap1\n      div\n      0xff\n      and\n      0xff\n      and\n      0xff\n      and\n      dup2\n      mstore\n      0x20\n      add\n      0x01\n      dup3\n      add\n      sload\n      dup2\n      mstore\n      0x20\n      add\n      0x02\n      dup3\n      add\n      sload\n      dup2\n      mstore\n      pop\n      pop\n        /* \"Scoring.sol\":1516:1528  specialCards */\n      dup2\n        /* \"Scoring.sol\":1529:1530  5 */\n      0x05\n        /* \"Scoring.sol\":1516:1531  specialCards[5] */\n      dup2\n      mload\n      dup2\n      lt\n      tag_74\n      jumpi\n      tag_75\n      tag_27\n      jump\t// in\n    tag_75:\n    tag_74:\n      0x20\n      mul\n      0x20\n      add\n      add\n        /* \"Scoring.sol\":1516:1550  specialCards[5] = opponentLosesTwo */\n      dup2\n      swap1\n      mstore\n      pop\n        /* \"Scoring.sol\":1579:1588  youWinTwo */\n      0x12\n        /* \"Scoring.sol\":1561:1588  specialCards[6] = youWinTwo */\n      mload(0x40)\n      dup1\n      0x60\n      add\n      0x40\n      mstore\n      swap1\n      dup2\n      0x00\n      dup3\n      add\n      0x00\n      swap1\n      sload\n      swap1\n      0x0100\n      exp\n      swap1\n      div\n      0xff\n      and\n      0xff\n      and\n      0xff\n      and\n      dup2\n      mstore\n      0x20\n      add\n      0x01\n      dup3\n      add\n      sload\n      dup2\n      mstore\n      0x20\n      add\n      0x02\n      dup3\n      add\n      sload\n      dup2\n      mstore\n      pop\n      pop\n        /* \"Scoring.sol\":1561:1573  specialCards */\n      dup2\n        /* \"Scoring.sol\":1574:1575  6 */\n      0x06\n        /* \"Scoring.sol\":1561:1576  specialCards[6] */\n      dup2\n      mload\n      dup2\n      lt\n      tag_76\n      jumpi\n      tag_77\n      tag_27\n      jump\t// in\n    tag_77:\n    tag_76:\n      0x20\n      mul\n      0x20\n      add\n      add\n        /* \"Scoring.sol\":1561:1588  specialCards[6] = youWinTwo */\n      dup2\n      swap1\n      mstore\n      pop\n        /* \"Scoring.sol\":1617:1645  youWinOne_opponentLosesThree */\n      0x15\n        /* \"Scoring.sol\":1599:1645  specialCards[7] = youWinOne_opponentLosesThree */\n      mload(0x40)\n      dup1\n      0x60\n      add\n      0x40\n      mstore\n      swap1\n      dup2\n      0x00\n      dup3\n      add\n      0x00\n      swap1\n      sload\n      swap1\n      0x0100\n      exp\n      swap1\n      div\n      0xff\n      and\n      0xff\n      and\n      0xff\n      and\n      dup2\n      mstore\n      0x20\n      add\n      0x01\n      dup3\n      add\n      sload\n      dup2\n      mstore\n      0x20\n      add\n      0x02\n      dup3\n      add\n      sload\n      dup2\n      mstore\n      pop\n      pop\n        /* \"Scoring.sol\":1599:1611  specialCards */\n      dup2\n        /* \"Scoring.sol\":1612:1613  7 */\n      0x07\n        /* \"Scoring.sol\":1599:1614  specialCards[7] */\n      dup2\n      mload\n      dup2\n      lt\n      tag_78\n      jumpi\n      tag_79\n      tag_27\n      jump\t// in\n    tag_79:\n    tag_78:\n      0x20\n      mul\n      0x20\n      add\n      add\n        /* \"Scoring.sol\":1599:1645  specialCards[7] = youWinOne_opponentLosesThree */\n      dup2\n      swap1\n      mstore\n      pop\n        /* \"Scoring.sol\":1674:1702  youWinThree_opponentLosesOne */\n      0x18\n        /* \"Scoring.sol\":1656:1702  specialCards[8] = youWinThree_opponentLosesOne */\n      mload(0x40)\n      dup1\n      0x60\n      add\n      0x40\n      mstore\n      swap1\n      dup2\n      0x00\n      dup3\n      add\n      0x00\n      swap1\n      sload\n      swap1\n      0x0100\n      exp\n      swap1\n      div\n      0xff\n      and\n      0xff\n      and\n      0xff\n      and\n      dup2\n      mstore\n      0x20\n      add\n      0x01\n      dup3\n      add\n      sload\n      dup2\n      mstore\n      0x20\n      add\n      0x02\n      dup3\n      add\n      sload\n      dup2\n      mstore\n      pop\n      pop\n        /* \"Scoring.sol\":1656:1668  specialCards */\n      dup2\n        /* \"Scoring.sol\":1669:1670  8 */\n      0x08\n        /* \"Scoring.sol\":1656:1671  specialCards[8] */\n      dup2\n      mload\n      dup2\n      lt\n      tag_80\n      jumpi\n      tag_81\n      tag_27\n      jump\t// in\n    tag_81:\n    tag_80:\n      0x20\n      mul\n      0x20\n      add\n      add\n        /* \"Scoring.sol\":1656:1702  specialCards[8] = youWinThree_opponentLosesOne */\n      dup2\n      swap1\n      mstore\n      pop\n        /* \"Scoring.sol\":1731:1741  youWinFour */\n      0x1b\n        /* \"Scoring.sol\":1713:1741  specialCards[9] = youWinFour */\n      mload(0x40)\n      dup1\n      0x60\n      add\n      0x40\n      mstore\n      swap1\n      dup2\n      0x00\n      dup3\n      add\n      0x00\n      swap1\n      sload\n      swap1\n      0x0100\n      exp\n      swap1\n      div\n      0xff\n      and\n      0xff\n      and\n      0xff\n      and\n      dup2\n      mstore\n      0x20\n      add\n      0x01\n      dup3\n      add\n      sload\n      dup2\n      mstore\n      0x20\n      add\n      0x02\n      dup3\n      add\n      sload\n      dup2\n      mstore\n      pop\n      pop\n        /* \"Scoring.sol\":1713:1725  specialCards */\n      dup2\n        /* \"Scoring.sol\":1726:1727  9 */\n      0x09\n        /* \"Scoring.sol\":1713:1728  specialCards[9] */\n      dup2\n      mload\n      dup2\n      lt\n      tag_82\n      jumpi\n      tag_83\n      tag_27\n      jump\t// in\n    tag_83:\n    tag_82:\n      0x20\n      mul\n      0x20\n      add\n      add\n        /* \"Scoring.sol\":1713:1741  specialCards[9] = youWinFour */\n      dup2\n      swap1\n      mstore\n      pop\n        /* \"Scoring.sol\":1761:1773  specialCards */\n      dup1\n        /* \"Scoring.sol\":1774:1779  index */\n      dup4\n        /* \"Scoring.sol\":1761:1780  specialCards[index] */\n      dup2\n      mload\n      dup2\n      lt\n      tag_84\n      jumpi\n      tag_85\n      tag_27\n      jump\t// in\n    tag_85:\n    tag_84:\n      0x20\n      mul\n      0x20\n      add\n      add\n      mload\n        /* \"Scoring.sol\":1754:1780  return specialCards[index] */\n      swap2\n      pop\n      pop\n        /* \"Scoring.sol\":1130:1788  function getSpecialCard(uint256 index) private view returns(SpecialCard memory) {... */\n      swap2\n      swap1\n      pop\n      jump\t// out\n    tag_19:\n      mload(0x40)\n      dup1\n      0x60\n      add\n      0x40\n      mstore\n      dup1\n      and(0xff, 0x00)\n      dup2\n      mstore\n      0x20\n      add\n      0x00\n      dup2\n      mstore\n      0x20\n      add\n      0x00\n      dup2\n      mstore\n      pop\n      swap1\n      jump\t// out\n        /* \"#utility.yul\":7:147   */\n    tag_86:\n        /* \"#utility.yul\":100:106   */\n      0x00\n        /* \"#utility.yul\":134:139   */\n      dup2\n        /* \"#utility.yul\":128:140   */\n      mload\n        /* \"#utility.yul\":118:140   */\n      swap1\n      pop\n        /* \"#utility.yul\":7:147   */\n      swap2\n      swap1\n      pop\n      jump\t// out\n        /* \"#utility.yul\":153:363   */\n    tag_87:\n        /* \"#utility.yul\":278:289   */\n      0x00\n        /* \"#utility.yul\":312:318   */\n      dup3\n        /* \"#utility.yul\":307:310   */\n      dup3\n        /* \"#utility.yul\":300:319   */\n      mstore\n        /* \"#utility.yul\":352:356   */\n      0x20\n        /* \"#utility.yul\":347:350   */\n      dup3\n        /* \"#utility.yul\":343:357   */\n      add\n        /* \"#utility.yul\":328:357   */\n      swap1\n      pop\n        /* \"#utility.yul\":153:363   */\n      swap3\n      swap2\n      pop\n      pop\n      jump\t// out\n        /* \"#utility.yul\":369:527   */\n    tag_88:\n        /* \"#utility.yul\":462:466   */\n      0x00\n        /* \"#utility.yul\":485:488   */\n      dup2\n        /* \"#utility.yul\":477:488   */\n      swap1\n      pop\n        /* \"#utility.yul\":515:519   */\n      0x20\n        /* \"#utility.yul\":510:513   */\n      dup3\n        /* \"#utility.yul\":506:520   */\n      add\n        /* \"#utility.yul\":498:520   */\n      swap1\n      pop\n        /* \"#utility.yul\":369:527   */\n      swap2\n      swap1\n      pop\n      jump\t// out\n        /* \"#utility.yul\":533:619   */\n    tag_89:\n        /* \"#utility.yul\":568:575   */\n      0x00\n        /* \"#utility.yul\":608:612   */\n      0xff\n        /* \"#utility.yul\":601:606   */\n      dup3\n        /* \"#utility.yul\":597:613   */\n      and\n        /* \"#utility.yul\":586:613   */\n      swap1\n      pop\n        /* \"#utility.yul\":533:619   */\n      swap2\n      swap1\n      pop\n      jump\t// out\n        /* \"#utility.yul\":625:727   */\n    tag_90:\n        /* \"#utility.yul\":698:720   */\n      tag_105\n        /* \"#utility.yul\":714:719   */\n      dup2\n        /* \"#utility.yul\":698:720   */\n      tag_89\n      jump\t// in\n    tag_105:\n        /* \"#utility.yul\":693:696   */\n      dup3\n        /* \"#utility.yul\":686:721   */\n      mstore\n        /* \"#utility.yul\":625:727   */\n      pop\n      pop\n      jump\t// out\n        /* \"#utility.yul\":733:810   */\n    tag_91:\n        /* \"#utility.yul\":770:777   */\n      0x00\n        /* \"#utility.yul\":799:804   */\n      dup2\n        /* \"#utility.yul\":788:804   */\n      swap1\n      pop\n        /* \"#utility.yul\":733:810   */\n      swap2\n      swap1\n      pop\n      jump\t// out\n        /* \"#utility.yul\":816:924   */\n    tag_92:\n        /* \"#utility.yul\":893:917   */\n      tag_108\n        /* \"#utility.yul\":911:916   */\n      dup2\n        /* \"#utility.yul\":893:917   */\n      tag_91\n      jump\t// in\n    tag_108:\n        /* \"#utility.yul\":888:891   */\n      dup3\n        /* \"#utility.yul\":881:918   */\n      mstore\n        /* \"#utility.yul\":816:924   */\n      pop\n      pop\n      jump\t// out\n        /* \"#utility.yul\":994:1672   */\n    tag_93:\n        /* \"#utility.yul\":1133:1137   */\n      0x60\n        /* \"#utility.yul\":1128:1131   */\n      dup3\n        /* \"#utility.yul\":1124:1138   */\n      add\n        /* \"#utility.yul\":1218:1222   */\n      0x00\n        /* \"#utility.yul\":1211:1216   */\n      dup3\n        /* \"#utility.yul\":1207:1223   */\n      add\n        /* \"#utility.yul\":1201:1224   */\n      mload\n        /* \"#utility.yul\":1237:1296   */\n      tag_110\n        /* \"#utility.yul\":1290:1294   */\n      0x00\n        /* \"#utility.yul\":1285:1288   */\n      dup6\n        /* \"#utility.yul\":1281:1295   */\n      add\n        /* \"#utility.yul\":1267:1279   */\n      dup3\n        /* \"#utility.yul\":1237:1296   */\n      tag_90\n      jump\t// in\n    tag_110:\n        /* \"#utility.yul\":1148:1306   */\n      pop\n        /* \"#utility.yul\":1390:1394   */\n      0x20\n        /* \"#utility.yul\":1383:1388   */\n      dup3\n        /* \"#utility.yul\":1379:1395   */\n      add\n        /* \"#utility.yul\":1373:1396   */\n      mload\n        /* \"#utility.yul\":1409:1472   */\n      tag_111\n        /* \"#utility.yul\":1466:1470   */\n      0x20\n        /* \"#utility.yul\":1461:1464   */\n      dup6\n        /* \"#utility.yul\":1457:1471   */\n      add\n        /* \"#utility.yul\":1443:1455   */\n      dup3\n        /* \"#utility.yul\":1409:1472   */\n      tag_92\n      jump\t// in\n    tag_111:\n        /* \"#utility.yul\":1316:1482   */\n      pop\n        /* \"#utility.yul\":1573:1577   */\n      0x40\n        /* \"#utility.yul\":1566:1571   */\n      dup3\n        /* \"#utility.yul\":1562:1578   */\n      add\n        /* \"#utility.yul\":1556:1579   */\n      mload\n        /* \"#utility.yul\":1592:1655   */\n      tag_112\n        /* \"#utility.yul\":1649:1653   */\n      0x40\n        /* \"#utility.yul\":1644:1647   */\n      dup6\n        /* \"#utility.yul\":1640:1654   */\n      add\n        /* \"#utility.yul\":1626:1638   */\n      dup3\n        /* \"#utility.yul\":1592:1655   */\n      tag_92\n      jump\t// in\n    tag_112:\n        /* \"#utility.yul\":1492:1665   */\n      pop\n        /* \"#utility.yul\":1102:1672   */\n      pop\n        /* \"#utility.yul\":994:1672   */\n      pop\n      pop\n      jump\t// out\n        /* \"#utility.yul\":1678:1961   */\n    tag_94:\n        /* \"#utility.yul\":1799:1809   */\n      0x00\n        /* \"#utility.yul\":1820:1918   */\n      tag_114\n        /* \"#utility.yul\":1914:1917   */\n      dup4\n        /* \"#utility.yul\":1906:1912   */\n      dup4\n        /* \"#utility.yul\":1820:1918   */\n      tag_93\n      jump\t// in\n    tag_114:\n        /* \"#utility.yul\":1950:1954   */\n      0x60\n        /* \"#utility.yul\":1945:1948   */\n      dup4\n        /* \"#utility.yul\":1941:1955   */\n      add\n        /* \"#utility.yul\":1927:1955   */\n      swap1\n      pop\n        /* \"#utility.yul\":1678:1961   */\n      swap3\n      swap2\n      pop\n      pop\n      jump\t// out\n        /* \"#utility.yul\":1967:2106   */\n    tag_95:\n        /* \"#utility.yul\":2063:2067   */\n      0x00\n        /* \"#utility.yul\":2095:2099   */\n      0x20\n        /* \"#utility.yul\":2090:2093   */\n      dup3\n        /* \"#utility.yul\":2086:2100   */\n      add\n        /* \"#utility.yul\":2078:2100   */\n      swap1\n      pop\n        /* \"#utility.yul\":1967:2106   */\n      swap2\n      swap1\n      pop\n      jump\t// out\n        /* \"#utility.yul\":2180:3120   */\n    tag_96:\n        /* \"#utility.yul\":2351:2354   */\n      0x00\n        /* \"#utility.yul\":2380:2460   */\n      tag_117\n        /* \"#utility.yul\":2454:2459   */\n      dup3\n        /* \"#utility.yul\":2380:2460   */\n      tag_86\n      jump\t// in\n    tag_117:\n        /* \"#utility.yul\":2476:2588   */\n      tag_118\n        /* \"#utility.yul\":2581:2587   */\n      dup2\n        /* \"#utility.yul\":2576:2579   */\n      dup6\n        /* \"#utility.yul\":2476:2588   */\n      tag_87\n      jump\t// in\n    tag_118:\n        /* \"#utility.yul\":2469:2588   */\n      swap4\n      pop\n        /* \"#utility.yul\":2612:2694   */\n      tag_119\n        /* \"#utility.yul\":2688:2693   */\n      dup4\n        /* \"#utility.yul\":2612:2694   */\n      tag_88\n      jump\t// in\n    tag_119:\n        /* \"#utility.yul\":2717:2724   */\n      dup1\n        /* \"#utility.yul\":2748:2749   */\n      0x00\n        /* \"#utility.yul\":2733:3095   */\n    tag_120:\n        /* \"#utility.yul\":2758:2764   */\n      dup4\n        /* \"#utility.yul\":2755:2756   */\n      dup2\n        /* \"#utility.yul\":2752:2765   */\n      lt\n        /* \"#utility.yul\":2733:3095   */\n      iszero\n      tag_122\n      jumpi\n        /* \"#utility.yul\":2834:2840   */\n      dup2\n        /* \"#utility.yul\":2828:2841   */\n      mload\n        /* \"#utility.yul\":2861:2976   */\n      tag_123\n        /* \"#utility.yul\":2972:2975   */\n      dup9\n        /* \"#utility.yul\":2957:2970   */\n      dup3\n        /* \"#utility.yul\":2861:2976   */\n      tag_94\n      jump\t// in\n    tag_123:\n        /* \"#utility.yul\":2854:2976   */\n      swap8\n      pop\n        /* \"#utility.yul\":2999:3085   */\n      tag_124\n        /* \"#utility.yul\":3078:3084   */\n      dup4\n        /* \"#utility.yul\":2999:3085   */\n      tag_95\n      jump\t// in\n    tag_124:\n        /* \"#utility.yul\":2989:3085   */\n      swap3\n      pop\n        /* \"#utility.yul\":2793:3095   */\n      pop\n        /* \"#utility.yul\":2780:2781   */\n      0x01\n        /* \"#utility.yul\":2777:2778   */\n      dup2\n        /* \"#utility.yul\":2773:2782   */\n      add\n        /* \"#utility.yul\":2768:2782   */\n      swap1\n      pop\n        /* \"#utility.yul\":2733:3095   */\n      jump(tag_120)\n    tag_122:\n        /* \"#utility.yul\":2737:2751   */\n      pop\n        /* \"#utility.yul\":3111:3114   */\n      dup6\n        /* \"#utility.yul\":3104:3114   */\n      swap4\n      pop\n        /* \"#utility.yul\":2356:3120   */\n      pop\n      pop\n      pop\n        /* \"#utility.yul\":2180:3120   */\n      swap3\n      swap2\n      pop\n      pop\n      jump\t// out\n        /* \"#utility.yul\":3126:3968   */\n    tag_7:\n        /* \"#utility.yul\":3451:3455   */\n      0x00\n        /* \"#utility.yul\":3489:3491   */\n      0x40\n        /* \"#utility.yul\":3478:3487   */\n      dup3\n        /* \"#utility.yul\":3474:3492   */\n      add\n        /* \"#utility.yul\":3466:3492   */\n      swap1\n      pop\n        /* \"#utility.yul\":3538:3547   */\n      dup2\n        /* \"#utility.yul\":3532:3536   */\n      dup2\n        /* \"#utility.yul\":3528:3548   */\n      sub\n        /* \"#utility.yul\":3524:3525   */\n      0x00\n        /* \"#utility.yul\":3513:3522   */\n      dup4\n        /* \"#utility.yul\":3509:3526   */\n      add\n        /* \"#utility.yul\":3502:3549   */\n      mstore\n        /* \"#utility.yul\":3566:3726   */\n      tag_126\n        /* \"#utility.yul\":3721:3725   */\n      dup2\n        /* \"#utility.yul\":3712:3718   */\n      dup6\n        /* \"#utility.yul\":3566:3726   */\n      tag_96\n      jump\t// in\n    tag_126:\n        /* \"#utility.yul\":3558:3726   */\n      swap1\n      pop\n        /* \"#utility.yul\":3773:3782   */\n      dup2\n        /* \"#utility.yul\":3767:3771   */\n      dup2\n        /* \"#utility.yul\":3763:3783   */\n      sub\n        /* \"#utility.yul\":3758:3760   */\n      0x20\n        /* \"#utility.yul\":3747:3756   */\n      dup4\n        /* \"#utility.yul\":3743:3761   */\n      add\n        /* \"#utility.yul\":3736:3784   */\n      mstore\n        /* \"#utility.yul\":3801:3961   */\n      tag_127\n        /* \"#utility.yul\":3956:3960   */\n      dup2\n        /* \"#utility.yul\":3947:3953   */\n      dup5\n        /* \"#utility.yul\":3801:3961   */\n      tag_96\n      jump\t// in\n    tag_127:\n        /* \"#utility.yul\":3793:3961   */\n      swap1\n      pop\n        /* \"#utility.yul\":3126:3968   */\n      swap4\n      swap3\n      pop\n      pop\n      pop\n      jump\t// out\n        /* \"#utility.yul\":3974:4154   */\n    tag_15:\n        /* \"#utility.yul\":4022:4099   */\n      0x4e487b7100000000000000000000000000000000000000000000000000000000\n        /* \"#utility.yul\":4019:4020   */\n      0x00\n        /* \"#utility.yul\":4012:4100   */\n      mstore\n        /* \"#utility.yul\":4119:4123   */\n      0x41\n        /* \"#utility.yul\":4116:4117   */\n      0x04\n        /* \"#utility.yul\":4109:4124   */\n      mstore\n        /* \"#utility.yul\":4143:4147   */\n      0x24\n        /* \"#utility.yul\":4140:4141   */\n      0x00\n        /* \"#utility.yul\":4133:4148   */\n      revert\n        /* \"#utility.yul\":4160:4340   */\n    tag_97:\n        /* \"#utility.yul\":4208:4285   */\n      0x4e487b7100000000000000000000000000000000000000000000000000000000\n        /* \"#utility.yul\":4205:4206   */\n      0x00\n        /* \"#utility.yul\":4198:4286   */\n      mstore\n        /* \"#utility.yul\":4305:4309   */\n      0x12\n        /* \"#utility.yul\":4302:4303   */\n      0x04\n        /* \"#utility.yul\":4295:4310   */\n      mstore\n        /* \"#utility.yul\":4329:4333   */\n      0x24\n        /* \"#utility.yul\":4326:4327   */\n      0x00\n        /* \"#utility.yul\":4319:4334   */\n      revert\n        /* \"#utility.yul\":4346:4522   */\n    tag_24:\n        /* \"#utility.yul\":4378:4379   */\n      0x00\n        /* \"#utility.yul\":4395:4415   */\n      tag_131\n        /* \"#utility.yul\":4413:4414   */\n      dup3\n        /* \"#utility.yul\":4395:4415   */\n      tag_91\n      jump\t// in\n    tag_131:\n        /* \"#utility.yul\":4390:4415   */\n      swap2\n      pop\n        /* \"#utility.yul\":4429:4449   */\n      tag_132\n        /* \"#utility.yul\":4447:4448   */\n      dup4\n        /* \"#utility.yul\":4429:4449   */\n      tag_91\n      jump\t// in\n    tag_132:\n        /* \"#utility.yul\":4424:4449   */\n      swap3\n      pop\n        /* \"#utility.yul\":4468:4469   */\n      dup3\n        /* \"#utility.yul\":4458:4493   */\n      tag_133\n      jumpi\n        /* \"#utility.yul\":4473:4491   */\n      tag_134\n      tag_97\n      jump\t// in\n    tag_134:\n        /* \"#utility.yul\":4458:4493   */\n    tag_133:\n        /* \"#utility.yul\":4514:4515   */\n      dup3\n        /* \"#utility.yul\":4511:4512   */\n      dup3\n        /* \"#utility.yul\":4507:4516   */\n      mod\n        /* \"#utility.yul\":4502:4516   */\n      swap1\n      pop\n        /* \"#utility.yul\":4346:4522   */\n      swap3\n      swap2\n      pop\n      pop\n      jump\t// out\n        /* \"#utility.yul\":4528:4708   */\n    tag_27:\n        /* \"#utility.yul\":4576:4653   */\n      0x4e487b7100000000000000000000000000000000000000000000000000000000\n        /* \"#utility.yul\":4573:4574   */\n      0x00\n        /* \"#utility.yul\":4566:4654   */\n      mstore\n        /* \"#utility.yul\":4673:4677   */\n      0x32\n        /* \"#utility.yul\":4670:4671   */\n      0x04\n        /* \"#utility.yul\":4663:4678   */\n      mstore\n        /* \"#utility.yul\":4697:4701   */\n      0x24\n        /* \"#utility.yul\":4694:4695   */\n      0x00\n        /* \"#utility.yul\":4687:4702   */\n      revert\n        /* \"#utility.yul\":4714:4894   */\n    tag_98:\n        /* \"#utility.yul\":4762:4839   */\n      0x4e487b7100000000000000000000000000000000000000000000000000000000\n        /* \"#utility.yul\":4759:4760   */\n      0x00\n        /* \"#utility.yul\":4752:4840   */\n      mstore\n        /* \"#utility.yul\":4859:4863   */\n      0x11\n        /* \"#utility.yul\":4856:4857   */\n      0x04\n        /* \"#utility.yul\":4849:4864   */\n      mstore\n        /* \"#utility.yul\":4883:4887   */\n      0x24\n        /* \"#utility.yul\":4880:4881   */\n      0x00\n        /* \"#utility.yul\":4873:4888   */\n      revert\n        /* \"#utility.yul\":4900:5091   */\n    tag_46:\n        /* \"#utility.yul\":4940:4943   */\n      0x00\n        /* \"#utility.yul\":4959:4979   */\n      tag_138\n        /* \"#utility.yul\":4977:4978   */\n      dup3\n        /* \"#utility.yul\":4959:4979   */\n      tag_91\n      jump\t// in\n    tag_138:\n        /* \"#utility.yul\":4954:4979   */\n      swap2\n      pop\n        /* \"#utility.yul\":4993:5013   */\n      tag_139\n        /* \"#utility.yul\":5011:5012   */\n      dup4\n        /* \"#utility.yul\":4993:5013   */\n      tag_91\n      jump\t// in\n    tag_139:\n        /* \"#utility.yul\":4988:5013   */\n      swap3\n      pop\n        /* \"#utility.yul\":5036:5037   */\n      dup3\n        /* \"#utility.yul\":5033:5034   */\n      dup3\n        /* \"#utility.yul\":5029:5038   */\n      add\n        /* \"#utility.yul\":5022:5038   */\n      swap1\n      pop\n        /* \"#utility.yul\":5057:5060   */\n      dup1\n        /* \"#utility.yul\":5054:5055   */\n      dup3\n        /* \"#utility.yul\":5051:5061   */\n      gt\n        /* \"#utility.yul\":5048:5084   */\n      iszero\n      tag_140\n      jumpi\n        /* \"#utility.yul\":5064:5082   */\n      tag_141\n      tag_98\n      jump\t// in\n    tag_141:\n        /* \"#utility.yul\":5048:5084   */\n    tag_140:\n        /* \"#utility.yul\":4900:5091   */\n      swap3\n      swap2\n      pop\n      pop\n      jump\t// out\n\n    auxdata: 0xa2646970667358221220e205658f13109889964a2c3cb7acc95b3bb7f6cc9f4ff2da63a5cf509b50eb5c64736f6c63430008190033\n}\n",
				"bytecode": {
					"linkReferences": {},
					"object": "60806040526040518060600160405280600160ff1681526020015f815260200160058152505f80820151815f015f6101000a81548160ff021916908360ff160217905550602082015181600101556040820151816002015550506040518060600160405280600260ff168152602001600581526020015f81525060035f820151815f015f6101000a81548160ff021916908360ff160217905550602082015181600101556040820151816002015550506040518060600160405280600360ff1681526020015f8152602001600381525060065f820151815f015f6101000a81548160ff021916908360ff160217905550602082015181600101556040820151816002015550506040518060600160405280600460ff168152602001600381526020015f81525060095f820151815f015f6101000a81548160ff021916908360ff160217905550602082015181600101556040820151816002015550506040518060600160405280600560ff168152602001600281526020016002815250600c5f820151815f015f6101000a81548160ff021916908360ff160217905550602082015181600101556040820151816002015550506040518060600160405280600660ff1681526020015f81526020016002815250600f5f820151815f015f6101000a81548160ff021916908360ff160217905550602082015181600101556040820151816002015550506040518060600160405280600760ff168152602001600281526020015f81525060125f820151815f015f6101000a81548160ff021916908360ff160217905550602082015181600101556040820151816002015550506040518060600160405280600860ff16815260200160018152602001600381525060155f820151815f015f6101000a81548160ff021916908360ff160217905550602082015181600101556040820151816002015550506040518060600160405280600960ff16815260200160038152602001600181525060185f820151815f015f6101000a81548160ff021916908360ff160217905550602082015181600101556040820151816002015550506040518060600160405280600a60ff168152602001600481526020015f815250601b5f820151815f015f6101000a81548160ff021916908360ff1602179055506020820151816001015560408201518160020155505034801561036d575f80fd5b506109908061037b5f395ff3fe608060405234801561000f575f80fd5b5060043610610029575f3560e01c8063050877b71461002d575b5f80fd5b61003561004c565b60405161004392919061080e565b60405180910390f35b6060805f61005a6001610075565b90505f6100676002610075565b905081819350935050509091565b60605f600567ffffffffffffffff81111561009357610092610843565b5b6040519080825280602002602001820160405280156100cc57816020015b6100b96106d2565b8152602001906001900390816100b15790505b5090505f600567ffffffffffffffff8111156100eb576100ea610843565b5b6040519080825280602002602001820160405280156101195781602001602082028036833780820191505090505b5090505f429050600a8161012d919061089d565b825f815181106101405761013f6108cd565b5b602002602001018181525050600981610159919061089d565b8260018151811061016d5761016c6108cd565b5b602002602001018181525050600881610186919061089d565b8260028151811061019a576101996108cd565b5b6020026020010181815250506007816101b3919061089d565b826003815181106101c7576101c66108cd565b5b6020026020010181815250506006816101e0919061089d565b826004815181106101f4576101f36108cd565b5b6020026020010181815250505f5b82518110156102b757600a86848381518110610221576102206108cd565b5b60200260200101516102339190610927565b1015610269578583828151811061024d5761024c6108cd565b5b602002602001018181516102619190610927565b915081815250505b61028c83828151811061027f5761027e6108cd565b5b60200260200101516102c3565b84828151811061029f5761029e6108cd565b5b60200260200101819052508080600101915050610202565b50829350505050919050565b6102cb6106d2565b5f600a67ffffffffffffffff8111156102e7576102e6610843565b5b60405190808252806020026020018201604052801561032057816020015b61030d6106d2565b8152602001906001900390816103055790505b5090505f6040518060600160405290815f82015f9054906101000a900460ff1660ff1660ff16815260200160018201548152602001600282015481525050815f81518110610371576103706108cd565b5b602002602001018190525060036040518060600160405290815f82015f9054906101000a900460ff1660ff1660ff16815260200160018201548152602001600282015481525050816001815181106103cc576103cb6108cd565b5b602002602001018190525060066040518060600160405290815f82015f9054906101000a900460ff1660ff1660ff1681526020016001820154815260200160028201548152505081600281518110610427576104266108cd565b5b602002602001018190525060096040518060600160405290815f82015f9054906101000a900460ff1660ff1660ff1681526020016001820154815260200160028201548152505081600381518110610482576104816108cd565b5b6020026020010181905250600c6040518060600160405290815f82015f9054906101000a900460ff1660ff1660ff16815260200160018201548152602001600282015481525050816004815181106104dd576104dc6108cd565b5b6020026020010181905250600f6040518060600160405290815f82015f9054906101000a900460ff1660ff1660ff1681526020016001820154815260200160028201548152505081600581518110610538576105376108cd565b5b602002602001018190525060126040518060600160405290815f82015f9054906101000a900460ff1660ff1660ff1681526020016001820154815260200160028201548152505081600681518110610593576105926108cd565b5b602002602001018190525060156040518060600160405290815f82015f9054906101000a900460ff1660ff1660ff16815260200160018201548152602001600282015481525050816007815181106105ee576105ed6108cd565b5b602002602001018190525060186040518060600160405290815f82015f9054906101000a900460ff1660ff1660ff1681526020016001820154815260200160028201548152505081600881518110610649576106486108cd565b5b6020026020010181905250601b6040518060600160405290815f82015f9054906101000a900460ff1660ff1660ff16815260200160018201548152602001600282015481525050816009815181106106a4576106a36108cd565b5b60200260200101819052508083815181106106c2576106c16108cd565b5b6020026020010151915050919050565b60405180606001604052805f60ff1681526020015f81526020015f81525090565b5f81519050919050565b5f82825260208201905092915050565b5f819050602082019050919050565b5f60ff82169050919050565b6107318161071c565b82525050565b5f819050919050565b61074981610737565b82525050565b606082015f8201516107635f850182610728565b5060208201516107766020850182610740565b5060408201516107896040850182610740565b50505050565b5f61079a838361074f565b60608301905092915050565b5f602082019050919050565b5f6107bc826106f3565b6107c681856106fd565b93506107d18361070d565b805f5b838110156108015781516107e8888261078f565b97506107f3836107a6565b9250506001810190506107d4565b5085935050505092915050565b5f6040820190508181035f83015261082681856107b2565b9050818103602083015261083a81846107b2565b90509392505050565b7f4e487b71000000000000000000000000000000000000000000000000000000005f52604160045260245ffd5b7f4e487b71000000000000000000000000000000000000000000000000000000005f52601260045260245ffd5b5f6108a782610737565b91506108b283610737565b9250826108c2576108c1610870565b5b828206905092915050565b7f4e487b71000000000000000000000000000000000000000000000000000000005f52603260045260245ffd5b7f4e487b71000000000000000000000000000000000000000000000000000000005f52601160045260245ffd5b5f61093182610737565b915061093c83610737565b9250828201905080821115610954576109536108fa565b5b9291505056fea2646970667358221220e205658f13109889964a2c3cb7acc95b3bb7f6cc9f4ff2da63a5cf509b50eb5c64736f6c63430008190033",
					"opcodes": "PUSH1 0x80 PUSH1 0x40 MSTORE PUSH1 0x40 MLOAD DUP1 PUSH1 0x60 ADD PUSH1 0x40 MSTORE DUP1 PUSH1 0x1 PUSH1 0xFF AND DUP2 MSTORE PUSH1 0x20 ADD PUSH0 DUP2 MSTORE PUSH1 0x20 ADD PUSH1 0x5 DUP2 MSTORE POP PUSH0 DUP1 DUP3 ADD MLOAD DUP2 PUSH0 ADD PUSH0 PUSH2 0x100 EXP DUP2 SLOAD DUP2 PUSH1 0xFF MUL NOT AND SWAP1 DUP4 PUSH1 0xFF AND MUL OR SWAP1 SSTORE POP PUSH1 0x20 DUP3 ADD MLOAD DUP2 PUSH1 0x1 ADD SSTORE PUSH1 0x40 DUP3 ADD MLOAD DUP2 PUSH1 0x2 ADD SSTORE POP POP PUSH1 0x40 MLOAD DUP1 PUSH1 0x60 ADD PUSH1 0x40 MSTORE DUP1 PUSH1 0x2 PUSH1 0xFF AND DUP2 MSTORE PUSH1 0x20 ADD PUSH1 0x5 DUP2 MSTORE PUSH1 0x20 ADD PUSH0 DUP2 MSTORE POP PUSH1 0x3 PUSH0 DUP3 ADD MLOAD DUP2 PUSH0 ADD PUSH0 PUSH2 0x100 EXP DUP2 SLOAD DUP2 PUSH1 0xFF MUL NOT AND SWAP1 DUP4 PUSH1 0xFF AND MUL OR SWAP1 SSTORE POP PUSH1 0x20 DUP3 ADD MLOAD DUP2 PUSH1 0x1 ADD SSTORE PUSH1 0x40 DUP3 ADD MLOAD DUP2 PUSH1 0x2 ADD SSTORE POP POP PUSH1 0x40 MLOAD DUP1 PUSH1 0x60 ADD PUSH1 0x40 MSTORE DUP1 PUSH1 0x3 PUSH1 0xFF AND DUP2 MSTORE PUSH1 0x20 ADD PUSH0 DUP2 MSTORE PUSH1 0x20 ADD PUSH1 0x3 DUP2 MSTORE POP PUSH1 0x6 PUSH0 DUP3 ADD MLOAD DUP2 PUSH0 ADD PUSH0 PUSH2 0x100 EXP DUP2 SLOAD DUP2 PUSH1 0xFF MUL NOT AND SWAP1 DUP4 PUSH1 0xFF AND MUL OR SWAP1 SSTORE POP PUSH1 0x20 DUP3 ADD MLOAD DUP2 PUSH1 0x1 ADD SSTORE PUSH1 0x40 DUP3 ADD MLOAD DUP2 PUSH1 0x2 ADD SSTORE POP POP PUSH1 0x40 MLOAD DUP1 PUSH1 0x60 ADD PUSH1 0x40 MSTORE DUP1 PUSH1 0x4 PUSH1 0xFF AND DUP2 MSTORE PUSH1 0x20 ADD PUSH1 0x3 DUP2 MSTORE PUSH1 0x20 ADD PUSH0 DUP2 MSTORE POP PUSH1 0x9 PUSH0 DUP3 ADD MLOAD DUP2 PUSH0 ADD PUSH0 PUSH2 0x100 EXP DUP2 SLOAD DUP2 PUSH1 0xFF MUL NOT AND SWAP1 DUP4 PUSH1 0xFF AND MUL OR SWAP1 SSTORE POP PUSH1 0x20 DUP3 ADD MLOAD DUP2 PUSH1 0x1 ADD SSTORE PUSH1 0x40 DUP3 ADD MLOAD DUP2 PUSH1 0x2 ADD SSTORE POP POP PUSH1 0x40 MLOAD DUP1 PUSH1 0x60 ADD PUSH1 0x40 MSTORE DUP1 PUSH1 0x5 PUSH1 0xFF AND DUP2 MSTORE PUSH1 0x20 ADD PUSH1 0x2 DUP2 MSTORE PUSH1 0x20 ADD PUSH1 0x2 DUP2 MSTORE POP PUSH1 0xC PUSH0 DUP3 ADD MLOAD DUP2 PUSH0 ADD PUSH0 PUSH2 0x100 EXP DUP2 SLOAD DUP2 PUSH1 0xFF MUL NOT AND SWAP1 DUP4 PUSH1 0xFF AND MUL OR SWAP1 SSTORE POP PUSH1 0x20 DUP3 ADD MLOAD DUP2 PUSH1 0x1 ADD SSTORE PUSH1 0x40 DUP3 ADD MLOAD DUP2 PUSH1 0x2 ADD SSTORE POP POP PUSH1 0x40 MLOAD DUP1 PUSH1 0x60 ADD PUSH1 0x40 MSTORE DUP1 PUSH1 0x6 PUSH1 0xFF AND DUP2 MSTORE PUSH1 0x20 ADD PUSH0 DUP2 MSTORE PUSH1 0x20 ADD PUSH1 0x2 DUP2 MSTORE POP PUSH1 0xF PUSH0 DUP3 ADD MLOAD DUP2 PUSH0 ADD PUSH0 PUSH2 0x100 EXP DUP2 SLOAD DUP2 PUSH1 0xFF MUL NOT AND SWAP1 DUP4 PUSH1 0xFF AND MUL OR SWAP1 SSTORE POP PUSH1 0x20 DUP3 ADD MLOAD DUP2 PUSH1 0x1 ADD SSTORE PUSH1 0x40 DUP3 ADD MLOAD DUP2 PUSH1 0x2 ADD SSTORE POP POP PUSH1 0x40 MLOAD DUP1 PUSH1 0x60 ADD PUSH1 0x40 MSTORE DUP1 PUSH1 0x7 PUSH1 0xFF AND DUP2 MSTORE PUSH1 0x20 ADD PUSH1 0x2 DUP2 MSTORE PUSH1 0x20 ADD PUSH0 DUP2 MSTORE POP PUSH1 0x12 PUSH0 DUP3 ADD MLOAD DUP2 PUSH0 ADD PUSH0 PUSH2 0x100 EXP DUP2 SLOAD DUP2 PUSH1 0xFF MUL NOT AND SWAP1 DUP4 PUSH1 0xFF AND MUL OR SWAP1 SSTORE POP PUSH1 0x20 DUP3 ADD MLOAD DUP2 PUSH1 0x1 ADD SSTORE PUSH1 0x40 DUP3 ADD MLOAD DUP2 PUSH1 0x2 ADD SSTORE POP POP PUSH1 0x40 MLOAD DUP1 PUSH1 0x60 ADD PUSH1 0x40 MSTORE DUP1 PUSH1 0x8 PUSH1 0xFF AND DUP2 MSTORE PUSH1 0x20 ADD PUSH1 0x1 DUP2 MSTORE PUSH1 0x20 ADD PUSH1 0x3 DUP2 MSTORE POP PUSH1 0x15 PUSH0 DUP3 ADD MLOAD DUP2 PUSH0 ADD PUSH0 PUSH2 0x100 EXP DUP2 SLOAD DUP2 PUSH1 0xFF MUL NOT AND SWAP1 DUP4 PUSH1 0xFF AND MUL OR SWAP1 SSTORE POP PUSH1 0x20 DUP3 ADD MLOAD DUP2 PUSH1 0x1 ADD SSTORE PUSH1 0x40 DUP3 ADD MLOAD DUP2 PUSH1 0x2 ADD SSTORE POP POP PUSH1 0x40 MLOAD DUP1 PUSH1 0x60 ADD PUSH1 0x40 MSTORE DUP1 PUSH1 0x9 PUSH1 0xFF AND DUP2 MSTORE PUSH1 0x20 ADD PUSH1 0x3 DUP2 MSTORE PUSH1 0x20 ADD PUSH1 0x1 DUP2 MSTORE POP PUSH1 0x18 PUSH0 DUP3 ADD MLOAD DUP2 PUSH0 ADD PUSH0 PUSH2 0x100 EXP DUP2 SLOAD DUP2 PUSH1 0xFF MUL NOT AND SWAP1 DUP4 PUSH1 0xFF AND MUL OR SWAP1 SSTORE POP PUSH1 0x20 DUP3 ADD MLOAD DUP2 PUSH1 0x1 ADD SSTORE PUSH1 0x40 DUP3 ADD MLOAD DUP2 PUSH1 0x2 ADD SSTORE POP POP PUSH1 0x40 MLOAD DUP1 PUSH1 0x60 ADD PUSH1 0x40 MSTORE DUP1 PUSH1 0xA PUSH1 0xFF AND DUP2 MSTORE PUSH1 0x20 ADD PUSH1 0x4 DUP2 MSTORE PUSH1 0x20 ADD PUSH0 DUP2 MSTORE POP PUSH1 0x1B PUSH0 DUP3 ADD MLOAD DUP2 PUSH0 ADD PUSH0 PUSH2 0x100 EXP DUP2 SLOAD DUP2 PUSH1 0xFF MUL NOT AND SWAP1 DUP4 PUSH1 0xFF AND MUL OR SWAP1 SSTORE POP PUSH1 0x20 DUP3 ADD MLOAD DUP2 PUSH1 0x1 ADD SSTORE PUSH1 0x40 DUP3 ADD MLOAD DUP2 PUSH1 0x2 ADD SSTORE POP POP CALLVALUE DUP1 ISZERO PUSH2 0x36D JUMPI PUSH0 DUP1 REVERT JUMPDEST POP PUSH2 0x990 DUP1 PUSH2 0x37B PUSH0 CODECOPY PUSH0 RETURN INVALID PUSH1 0x80 PUSH1 0x40 MSTORE CALLVALUE DUP1 ISZERO PUSH2 0xF JUMPI PUSH0 DUP1 REVERT JUMPDEST POP PUSH1 0x4 CALLDATASIZE LT PUSH2 0x29 JUMPI PUSH0 CALLDATALOAD PUSH1 0xE0 SHR DUP1 PUSH4 0x50877B7 EQ PUSH2 0x2D JUMPI JUMPDEST PUSH0 DUP1 REVERT JUMPDEST PUSH2 0x35 PUSH2 0x4C JUMP JUMPDEST PUSH1 0x40 MLOAD PUSH2 0x43 SWAP3 SWAP2 SWAP1 PUSH2 0x80E JUMP JUMPDEST PUSH1 0x40 MLOAD DUP1 SWAP2 SUB SWAP1 RETURN JUMPDEST PUSH1 0x60 DUP1 PUSH0 PUSH2 0x5A PUSH1 0x1 PUSH2 0x75 JUMP JUMPDEST SWAP1 POP PUSH0 PUSH2 0x67 PUSH1 0x2 PUSH2 0x75 JUMP JUMPDEST SWAP1 POP DUP2 DUP2 SWAP4 POP SWAP4 POP POP POP SWAP1 SWAP2 JUMP JUMPDEST PUSH1 0x60 PUSH0 PUSH1 0x5 PUSH8 0xFFFFFFFFFFFFFFFF DUP2 GT ISZERO PUSH2 0x93 JUMPI PUSH2 0x92 PUSH2 0x843 JUMP JUMPDEST JUMPDEST PUSH1 0x40 MLOAD SWAP1 DUP1 DUP3 MSTORE DUP1 PUSH1 0x20 MUL PUSH1 0x20 ADD DUP3 ADD PUSH1 0x40 MSTORE DUP1 ISZERO PUSH2 0xCC JUMPI DUP2 PUSH1 0x20 ADD JUMPDEST PUSH2 0xB9 PUSH2 0x6D2 JUMP JUMPDEST DUP2 MSTORE PUSH1 0x20 ADD SWAP1 PUSH1 0x1 SWAP1 SUB SWAP1 DUP2 PUSH2 0xB1 JUMPI SWAP1 POP JUMPDEST POP SWAP1 POP PUSH0 PUSH1 0x5 PUSH8 0xFFFFFFFFFFFFFFFF DUP2 GT ISZERO PUSH2 0xEB JUMPI PUSH2 0xEA PUSH2 0x843 JUMP JUMPDEST JUMPDEST PUSH1 0x40 MLOAD SWAP1 DUP1 DUP3 MSTORE DUP1 PUSH1 0x20 MUL PUSH1 0x20 ADD DUP3 ADD PUSH1 0x40 MSTORE DUP1 ISZERO PUSH2 0x119 JUMPI DUP2 PUSH1 0x20 ADD PUSH1 0x20 DUP3 MUL DUP1 CALLDATASIZE DUP4 CALLDATACOPY DUP1 DUP3 ADD SWAP2 POP POP SWAP1 POP JUMPDEST POP SWAP1 POP PUSH0 TIMESTAMP SWAP1 POP PUSH1 0xA DUP2 PUSH2 0x12D SWAP2 SWAP1 PUSH2 0x89D JUMP JUMPDEST DUP3 PUSH0 DUP2 MLOAD DUP2 LT PUSH2 0x140 JUMPI PUSH2 0x13F PUSH2 0x8CD JUMP JUMPDEST JUMPDEST PUSH1 0x20 MUL PUSH1 0x20 ADD ADD DUP2 DUP2 MSTORE POP POP PUSH1 0x9 DUP2 PUSH2 0x159 SWAP2 SWAP1 PUSH2 0x89D JUMP JUMPDEST DUP3 PUSH1 0x1 DUP2 MLOAD DUP2 LT PUSH2 0x16D JUMPI PUSH2 0x16C PUSH2 0x8CD JUMP JUMPDEST JUMPDEST PUSH1 0x20 MUL PUSH1 0x20 ADD ADD DUP2 DUP2 MSTORE POP POP PUSH1 0x8 DUP2 PUSH2 0x186 SWAP2 SWAP1 PUSH2 0x89D JUMP JUMPDEST DUP3 PUSH1 0x2 DUP2 MLOAD DUP2 LT PUSH2 0x19A JUMPI PUSH2 0x199 PUSH2 0x8CD JUMP JUMPDEST JUMPDEST PUSH1 0x20 MUL PUSH1 0x20 ADD ADD DUP2 DUP2 MSTORE POP POP PUSH1 0x7 DUP2 PUSH2 0x1B3 SWAP2 SWAP1 PUSH2 0x89D JUMP JUMPDEST DUP3 PUSH1 0x3 DUP2 MLOAD DUP2 LT PUSH2 0x1C7 JUMPI PUSH2 0x1C6 PUSH2 0x8CD JUMP JUMPDEST JUMPDEST PUSH1 0x20 MUL PUSH1 0x20 ADD ADD DUP2 DUP2 MSTORE POP POP PUSH1 0x6 DUP2 PUSH2 0x1E0 SWAP2 SWAP1 PUSH2 0x89D JUMP JUMPDEST DUP3 PUSH1 0x4 DUP2 MLOAD DUP2 LT PUSH2 0x1F4 JUMPI PUSH2 0x1F3 PUSH2 0x8CD JUMP JUMPDEST JUMPDEST PUSH1 0x20 MUL PUSH1 0x20 ADD ADD DUP2 DUP2 MSTORE POP POP PUSH0 JUMPDEST DUP3 MLOAD DUP2 LT ISZERO PUSH2 0x2B7 JUMPI PUSH1 0xA DUP7 DUP5 DUP4 DUP2 MLOAD DUP2 LT PUSH2 0x221 JUMPI PUSH2 0x220 PUSH2 0x8CD JUMP JUMPDEST JUMPDEST PUSH1 0x20 MUL PUSH1 0x20 ADD ADD MLOAD PUSH2 0x233 SWAP2 SWAP1 PUSH2 0x927 JUMP JUMPDEST LT ISZERO PUSH2 0x269 JUMPI DUP6 DUP4 DUP3 DUP2 MLOAD DUP2 LT PUSH2 0x24D JUMPI PUSH2 0x24C PUSH2 0x8CD JUMP JUMPDEST JUMPDEST PUSH1 0x20 MUL PUSH1 0x20 ADD ADD DUP2 DUP2 MLOAD PUSH2 0x261 SWAP2 SWAP1 PUSH2 0x927 JUMP JUMPDEST SWAP2 POP DUP2 DUP2 MSTORE POP POP JUMPDEST PUSH2 0x28C DUP4 DUP3 DUP2 MLOAD DUP2 LT PUSH2 0x27F JUMPI PUSH2 0x27E PUSH2 0x8CD JUMP JUMPDEST JUMPDEST PUSH1 0x20 MUL PUSH1 0x20 ADD ADD MLOAD PUSH2 0x2C3 JUMP JUMPDEST DUP5 DUP3 DUP2 MLOAD DUP2 LT PUSH2 0x29F JUMPI PUSH2 0x29E PUSH2 0x8CD JUMP JUMPDEST JUMPDEST PUSH1 0x20 MUL PUSH1 0x20 ADD ADD DUP2 SWAP1 MSTORE POP DUP1 DUP1 PUSH1 0x1 ADD SWAP2 POP POP PUSH2 0x202 JUMP JUMPDEST POP DUP3 SWAP4 POP POP POP POP SWAP2 SWAP1 POP JUMP JUMPDEST PUSH2 0x2CB PUSH2 0x6D2 JUMP JUMPDEST PUSH0 PUSH1 0xA PUSH8 0xFFFFFFFFFFFFFFFF DUP2 GT ISZERO PUSH2 0x2E7 JUMPI PUSH2 0x2E6 PUSH2 0x843 JUMP JUMPDEST JUMPDEST PUSH1 0x40 MLOAD SWAP1 DUP1 DUP3 MSTORE DUP1 PUSH1 0x20 MUL PUSH1 0x20 ADD DUP3 ADD PUSH1 0x40 MSTORE DUP1 ISZERO PUSH2 0x320 JUMPI DUP2 PUSH1 0x20 ADD JUMPDEST PUSH2 0x30D PUSH2 0x6D2 JUMP JUMPDEST DUP2 MSTORE PUSH1 0x20 ADD SWAP1 PUSH1 0x1 SWAP1 SUB SWAP1 DUP2 PUSH2 0x305 JUMPI SWAP1 POP JUMPDEST POP SWAP1 POP PUSH0 PUSH1 0x40 MLOAD DUP1 PUSH1 0x60 ADD PUSH1 0x40 MSTORE SWAP1 DUP2 PUSH0 DUP3 ADD PUSH0 SWAP1 SLOAD SWAP1 PUSH2 0x100 EXP SWAP1 DIV PUSH1 0xFF AND PUSH1 0xFF AND PUSH1 0xFF AND DUP2 MSTORE PUSH1 0x20 ADD PUSH1 0x1 DUP3 ADD SLOAD DUP2 MSTORE PUSH1 0x20 ADD PUSH1 0x2 DUP3 ADD SLOAD DUP2 MSTORE POP POP DUP2 PUSH0 DUP2 MLOAD DUP2 LT PUSH2 0x371 JUMPI PUSH2 0x370 PUSH2 0x8CD JUMP JUMPDEST JUMPDEST PUSH1 0x20 MUL PUSH1 0x20 ADD ADD DUP2 SWAP1 MSTORE POP PUSH1 0x3 PUSH1 0x40 MLOAD DUP1 PUSH1 0x60 ADD PUSH1 0x40 MSTORE SWAP1 DUP2 PUSH0 DUP3 ADD PUSH0 SWAP1 SLOAD SWAP1 PUSH2 0x100 EXP SWAP1 DIV PUSH1 0xFF AND PUSH1 0xFF AND PUSH1 0xFF AND DUP2 MSTORE PUSH1 0x20 ADD PUSH1 0x1 DUP3 ADD SLOAD DUP2 MSTORE PUSH1 0x20 ADD PUSH1 0x2 DUP3 ADD SLOAD DUP2 MSTORE POP POP DUP2 PUSH1 0x1 DUP2 MLOAD DUP2 LT PUSH2 0x3CC JUMPI PUSH2 0x3CB PUSH2 0x8CD JUMP JUMPDEST JUMPDEST PUSH1 0x20 MUL PUSH1 0x20 ADD ADD DUP2 SWAP1 MSTORE POP PUSH1 0x6 PUSH1 0x40 MLOAD DUP1 PUSH1 0x60 ADD PUSH1 0x40 MSTORE SWAP1 DUP2 PUSH0 DUP3 ADD PUSH0 SWAP1 SLOAD SWAP1 PUSH2 0x100 EXP SWAP1 DIV PUSH1 0xFF AND PUSH1 0xFF AND PUSH1 0xFF AND DUP2 MSTORE PUSH1 0x20 ADD PUSH1 0x1 DUP3 ADD SLOAD DUP2 MSTORE PUSH1 0x20 ADD PUSH1 0x2 DUP3 ADD SLOAD DUP2 MSTORE POP POP DUP2 PUSH1 0x2 DUP2 MLOAD DUP2 LT PUSH2 0x427 JUMPI PUSH2 0x426 PUSH2 0x8CD JUMP JUMPDEST JUMPDEST PUSH1 0x20 MUL PUSH1 0x20 ADD ADD DUP2 SWAP1 MSTORE POP PUSH1 0x9 PUSH1 0x40 MLOAD DUP1 PUSH1 0x60 ADD PUSH1 0x40 MSTORE SWAP1 DUP2 PUSH0 DUP3 ADD PUSH0 SWAP1 SLOAD SWAP1 PUSH2 0x100 EXP SWAP1 DIV PUSH1 0xFF AND PUSH1 0xFF AND PUSH1 0xFF AND DUP2 MSTORE PUSH1 0x20 ADD PUSH1 0x1 DUP3 ADD SLOAD DUP2 MSTORE PUSH1 0x20 ADD PUSH1 0x2 DUP3 ADD SLOAD DUP2 MSTORE POP POP DUP2 PUSH1 0x3 DUP2 MLOAD DUP2 LT PUSH2 0x482 JUMPI PUSH2 0x481 PUSH2 0x8CD JUMP JUMPDEST JUMPDEST PUSH1 0x20 MUL PUSH1 0x20 ADD ADD DUP2 SWAP1 MSTORE POP PUSH1 0xC PUSH1 0x40 MLOAD DUP1 PUSH1 0x60 ADD PUSH1 0x40 MSTORE SWAP1 DUP2 PUSH0 DUP3 ADD PUSH0 SWAP1 SLOAD SWAP1 PUSH2 0x100 EXP SWAP1 DIV PUSH1 0xFF AND PUSH1 0xFF AND PUSH1 0xFF AND DUP2 MSTORE PUSH1 0x20 ADD PUSH1 0x1 DUP3 ADD SLOAD DUP2 MSTORE PUSH1 0x20 ADD PUSH1 0x2 DUP3 ADD SLOAD DUP2 MSTORE POP POP DUP2 PUSH1 0x4 DUP2 MLOAD DUP2 LT PUSH2 0x4DD JUMPI PUSH2 0x4DC PUSH2 0x8CD JUMP JUMPDEST JUMPDEST PUSH1 0x20 MUL PUSH1 0x20 ADD ADD DUP2 SWAP1 MSTORE POP PUSH1 0xF PUSH1 0x40 MLOAD DUP1 PUSH1 0x60 ADD PUSH1 0x40 MSTORE SWAP1 DUP2 PUSH0 DUP3 ADD PUSH0 SWAP1 SLOAD SWAP1 PUSH2 0x100 EXP SWAP1 DIV PUSH1 0xFF AND PUSH1 0xFF AND PUSH1 0xFF AND DUP2 MSTORE PUSH1 0x20 ADD PUSH1 0x1 DUP3 ADD SLOAD DUP2 MSTORE PUSH1 0x20 ADD PUSH1 0x2 DUP3 ADD SLOAD DUP2 MSTORE POP POP DUP2 PUSH1 0x5 DUP2 MLOAD DUP2 LT PUSH2 0x538 JUMPI PUSH2 0x537 PUSH2 0x8CD JUMP JUMPDEST JUMPDEST PUSH1 0x20 MUL PUSH1 0x20 ADD ADD DUP2 SWAP1 MSTORE POP PUSH1 0x12 PUSH1 0x40 MLOAD DUP1 PUSH1 0x60 ADD PUSH1 0x40 MSTORE SWAP1 DUP2 PUSH0 DUP3 ADD PUSH0 SWAP1 SLOAD SWAP1 PUSH2 0x100 EXP SWAP1 DIV PUSH1 0xFF AND PUSH1 0xFF AND PUSH1 0xFF AND DUP2 MSTORE PUSH1 0x20 ADD PUSH1 0x1 DUP3 ADD SLOAD DUP2 MSTORE PUSH1 0x20 ADD PUSH1 0x2 DUP3 ADD SLOAD DUP2 MSTORE POP POP DUP2 PUSH1 0x6 DUP2 MLOAD DUP2 LT PUSH2 0x593 JUMPI PUSH2 0x592 PUSH2 0x8CD JUMP JUMPDEST JUMPDEST PUSH1 0x20 MUL PUSH1 0x20 ADD ADD DUP2 SWAP1 MSTORE POP PUSH1 0x15 PUSH1 0x40 MLOAD DUP1 PUSH1 0x60 ADD PUSH1 0x40 MSTORE SWAP1 DUP2 PUSH0 DUP3 ADD PUSH0 SWAP1 SLOAD SWAP1 PUSH2 0x100 EXP SWAP1 DIV PUSH1 0xFF AND PUSH1 0xFF AND PUSH1 0xFF AND DUP2 MSTORE PUSH1 0x20 ADD PUSH1 0x1 DUP3 ADD SLOAD DUP2 MSTORE PUSH1 0x20 ADD PUSH1 0x2 DUP3 ADD SLOAD DUP2 MSTORE POP POP DUP2 PUSH1 0x7 DUP2 MLOAD DUP2 LT PUSH2 0x5EE JUMPI PUSH2 0x5ED PUSH2 0x8CD JUMP JUMPDEST JUMPDEST PUSH1 0x20 MUL PUSH1 0x20 ADD ADD DUP2 SWAP1 MSTORE POP PUSH1 0x18 PUSH1 0x40 MLOAD DUP1 PUSH1 0x60 ADD PUSH1 0x40 MSTORE SWAP1 DUP2 PUSH0 DUP3 ADD PUSH0 SWAP1 SLOAD SWAP1 PUSH2 0x100 EXP SWAP1 DIV PUSH1 0xFF AND PUSH1 0xFF AND PUSH1 0xFF AND DUP2 MSTORE PUSH1 0x20 ADD PUSH1 0x1 DUP3 ADD SLOAD DUP2 MSTORE PUSH1 0x20 ADD PUSH1 0x2 DUP3 ADD SLOAD DUP2 MSTORE POP POP DUP2 PUSH1 0x8 DUP2 MLOAD DUP2 LT PUSH2 0x649 JUMPI PUSH2 0x648 PUSH2 0x8CD JUMP JUMPDEST JUMPDEST PUSH1 0x20 MUL PUSH1 0x20 ADD ADD DUP2 SWAP1 MSTORE POP PUSH1 0x1B PUSH1 0x40 MLOAD DUP1 PUSH1 0x60 ADD PUSH1 0x40 MSTORE SWAP1 DUP2 PUSH0 DUP3 ADD PUSH0 SWAP1 SLOAD SWAP1 PUSH2 0x100 EXP SWAP1 DIV PUSH1 0xFF AND PUSH1 0xFF AND PUSH1 0xFF AND DUP2 MSTORE PUSH1 0x20 ADD PUSH1 0x1 DUP3 ADD SLOAD DUP2 MSTORE PUSH1 0x20 ADD PUSH1 0x2 DUP3 ADD SLOAD DUP2 MSTORE POP POP DUP2 PUSH1 0x9 DUP2 MLOAD DUP2 LT PUSH2 0x6A4 JUMPI PUSH2 0x6A3 PUSH2 0x8CD JUMP JUMPDEST JUMPDEST PUSH1 0x20 MUL PUSH1 0x20 ADD ADD DUP2 SWAP1 MSTORE POP DUP1 DUP4 DUP2 MLOAD DUP2 LT PUSH2 0x6C2 JUMPI PUSH2 0x6C1 PUSH2 0x8CD JUMP JUMPDEST JUMPDEST PUSH1 0x20 MUL PUSH1 0x20 ADD ADD MLOAD SWAP2 POP POP SWAP2 SWAP1 POP JUMP JUMPDEST PUSH1 0x40 MLOAD DUP1 PUSH1 0x60 ADD PUSH1 0x40 MSTORE DUP1 PUSH0 PUSH1 0xFF AND DUP2 MSTORE PUSH1 0x20 ADD PUSH0 DUP2 MSTORE PUSH1 0x20 ADD PUSH0 DUP2 MSTORE POP SWAP1 JUMP JUMPDEST PUSH0 DUP2 MLOAD SWAP1 POP SWAP2 SWAP1 POP JUMP JUMPDEST PUSH0 DUP3 DUP3 MSTORE PUSH1 0x20 DUP3 ADD SWAP1 POP SWAP3 SWAP2 POP POP JUMP JUMPDEST PUSH0 DUP2 SWAP1 POP PUSH1 0x20 DUP3 ADD SWAP1 POP SWAP2 SWAP1 POP JUMP JUMPDEST PUSH0 PUSH1 0xFF DUP3 AND SWAP1 POP SWAP2 SWAP1 POP JUMP JUMPDEST PUSH2 0x731 DUP2 PUSH2 0x71C JUMP JUMPDEST DUP3 MSTORE POP POP JUMP JUMPDEST PUSH0 DUP2 SWAP1 POP SWAP2 SWAP1 POP JUMP JUMPDEST PUSH2 0x749 DUP2 PUSH2 0x737 JUMP JUMPDEST DUP3 MSTORE POP POP JUMP JUMPDEST PUSH1 0x60 DUP3 ADD PUSH0 DUP3 ADD MLOAD PUSH2 0x763 PUSH0 DUP6 ADD DUP3 PUSH2 0x728 JUMP JUMPDEST POP PUSH1 0x20 DUP3 ADD MLOAD PUSH2 0x776 PUSH1 0x20 DUP6 ADD DUP3 PUSH2 0x740 JUMP JUMPDEST POP PUSH1 0x40 DUP3 ADD MLOAD PUSH2 0x789 PUSH1 0x40 DUP6 ADD DUP3 PUSH2 0x740 JUMP JUMPDEST POP POP POP POP JUMP JUMPDEST PUSH0 PUSH2 0x79A DUP4 DUP4 PUSH2 0x74F JUMP JUMPDEST PUSH1 0x60 DUP4 ADD SWAP1 POP SWAP3 SWAP2 POP POP JUMP JUMPDEST PUSH0 PUSH1 0x20 DUP3 ADD SWAP1 POP SWAP2 SWAP1 POP JUMP JUMPDEST PUSH0 PUSH2 0x7BC DUP3 PUSH2 0x6F3 JUMP JUMPDEST PUSH2 0x7C6 DUP2 DUP6 PUSH2 0x6FD JUMP JUMPDEST SWAP4 POP PUSH2 0x7D1 DUP4 PUSH2 0x70D JUMP JUMPDEST DUP1 PUSH0 JUMPDEST DUP4 DUP2 LT ISZERO PUSH2 0x801 JUMPI DUP2 MLOAD PUSH2 0x7E8 DUP9 DUP3 PUSH2 0x78F JUMP JUMPDEST SWAP8 POP PUSH2 0x7F3 DUP4 PUSH2 0x7A6 JUMP JUMPDEST SWAP3 POP POP PUSH1 0x1 DUP2 ADD SWAP1 POP PUSH2 0x7D4 JUMP JUMPDEST POP DUP6 SWAP4 POP POP POP POP SWAP3 SWAP2 POP POP JUMP JUMPDEST PUSH0 PUSH1 0x40 DUP3 ADD SWAP1 POP DUP2 DUP2 SUB PUSH0 DUP4 ADD MSTORE PUSH2 0x826 DUP2 DUP6 PUSH2 0x7B2 JUMP JUMPDEST SWAP1 POP DUP2 DUP2 SUB PUSH1 0x20 DUP4 ADD MSTORE PUSH2 0x83A DUP2 DUP5 PUSH2 0x7B2 JUMP JUMPDEST SWAP1 POP SWAP4 SWAP3 POP POP POP JUMP JUMPDEST PUSH32 0x4E487B7100000000000000000000000000000000000000000000000000000000 PUSH0 MSTORE PUSH1 0x41 PUSH1 0x4 MSTORE PUSH1 0x24 PUSH0 REVERT JUMPDEST PUSH32 0x4E487B7100000000000000000000000000000000000000000000000000000000 PUSH0 MSTORE PUSH1 0x12 PUSH1 0x4 MSTORE PUSH1 0x24 PUSH0 REVERT JUMPDEST PUSH0 PUSH2 0x8A7 DUP3 PUSH2 0x737 JUMP JUMPDEST SWAP2 POP PUSH2 0x8B2 DUP4 PUSH2 0x737 JUMP JUMPDEST SWAP3 POP DUP3 PUSH2 0x8C2 JUMPI PUSH2 0x8C1 PUSH2 0x870 JUMP JUMPDEST JUMPDEST DUP3 DUP3 MOD SWAP1 POP SWAP3 SWAP2 POP POP JUMP JUMPDEST PUSH32 0x4E487B7100000000000000000000000000000000000000000000000000000000 PUSH0 MSTORE PUSH1 0x32 PUSH1 0x4 MSTORE PUSH1 0x24 PUSH0 REVERT JUMPDEST PUSH32 0x4E487B7100000000000000000000000000000000000000000000000000000000 PUSH0 MSTORE PUSH1 0x11 PUSH1 0x4 MSTORE PUSH1 0x24 PUSH0 REVERT JUMPDEST PUSH0 PUSH2 0x931 DUP3 PUSH2 0x737 JUMP JUMPDEST SWAP2 POP PUSH2 0x93C DUP4 PUSH2 0x737 JUMP JUMPDEST SWAP3 POP DUP3 DUP3 ADD SWAP1 POP DUP1 DUP3 GT ISZERO PUSH2 0x954 JUMPI PUSH2 0x953 PUSH2 0x8FA JUMP JUMPDEST JUMPDEST SWAP3 SWAP2 POP POP JUMP INVALID LOG2 PUSH5 0x6970667358 0x22 SLT KECCAK256 0xE2 SDIV PUSH6 0x8F1310988996 BLOBBASEFEE 0x2C EXTCODECOPY 0xB7 0xAC 0xC9 JUMPDEST EXTCODESIZE 0xB7 0xF6 0xCC SWAP16 0x4F CALLCODE 0xDA PUSH4 0xA5CF509B POP 0xEB TLOAD PUSH5 0x736F6C6343 STOP ADDMOD NOT STOP CALLER "
				},
				"gasEstimates": {
					"creation": {
						"codeDepositCost": "489600",
						"executionCost": "566805",
						"totalCost": "1056405"
					},
					"external": {
						"takesCards()": "infinite"
					},
					"internal": {
						"generateRandomNumbersForPlayer(uint256)": "infinite",
						"getSpecialCard(uint256)": "infinite"
					}
				},
				"methodIdentifiers": {
					"takesCards()": "050877b7"
				}
			},
			"storageLayout": {
				"storage": [
					{
						"astId": 16,
						"contract": "Scoring.sol:Scoring",
						"label": "opponentLosesFive",
						"offset": 0,
						"slot": "0",
						"type": "t_struct(SpecialCard)8_storage"
					},
					{
						"astId": 24,
						"contract": "Scoring.sol:Scoring",
						"label": "youWinFive",
						"offset": 0,
						"slot": "3",
						"type": "t_struct(SpecialCard)8_storage"
					},
					{
						"astId": 32,
						"contract": "Scoring.sol:Scoring",
						"label": "opponentLosesThree",
						"offset": 0,
						"slot": "6",
						"type": "t_struct(SpecialCard)8_storage"
					},
					{
						"astId": 40,
						"contract": "Scoring.sol:Scoring",
						"label": "youWinThree",
						"offset": 0,
						"slot": "9",
						"type": "t_struct(SpecialCard)8_storage"
					},
					{
						"astId": 48,
						"contract": "Scoring.sol:Scoring",
						"label": "youWinTwo_opponentLosesTwo",
						"offset": 0,
						"slot": "12",
						"type": "t_struct(SpecialCard)8_storage"
					},
					{
						"astId": 56,
						"contract": "Scoring.sol:Scoring",
						"label": "opponentLosesTwo",
						"offset": 0,
						"slot": "15",
						"type": "t_struct(SpecialCard)8_storage"
					},
					{
						"astId": 64,
						"contract": "Scoring.sol:Scoring",
						"label": "youWinTwo",
						"offset": 0,
						"slot": "18",
						"type": "t_struct(SpecialCard)8_storage"
					},
					{
						"astId": 72,
						"contract": "Scoring.sol:Scoring",
						"label": "youWinOne_opponentLosesThree",
						"offset": 0,
						"slot": "21",
						"type": "t_struct(SpecialCard)8_storage"
					},
					{
						"astId": 80,
						"contract": "Scoring.sol:Scoring",
						"label": "youWinThree_opponentLosesOne",
						"offset": 0,
						"slot": "24",
						"type": "t_struct(SpecialCard)8_storage"
					},
					{
						"astId": 88,
						"contract": "Scoring.sol:Scoring",
						"label": "youWinFour",
						"offset": 0,
						"slot": "27",
						"type": "t_struct(SpecialCard)8_storage"
					}
				],
				"types": {
					"t_struct(SpecialCard)8_storage": {
						"encoding": "inplace",
						"label": "struct Scoring.SpecialCard",
						"members": [
							{
								"astId": 3,
								"contract": "Scoring.sol:Scoring",
								"label": "id",
								"offset": 0,
								"slot": "0",
								"type": "t_uint8"
							},
							{
								"astId": 5,
								"contract": "Scoring.sol:Scoring",
								"label": "youWin",
								"offset": 0,
								"slot": "1",
								"type": "t_uint256"
							},
							{
								"astId": 7,
								"contract": "Scoring.sol:Scoring",
								"label": "opponentLoses",
								"offset": 0,
								"slot": "2",
								"type": "t_uint256"
							}
						],
						"numberOfBytes": "96"
					},
					"t_uint256": {
						"encoding": "inplace",
						"label": "uint256",
						"numberOfBytes": "32"
					},
					"t_uint8": {
						"encoding": "inplace",
						"label": "uint8",
						"numberOfBytes": "1"
					}
				}
			},
			"userdoc": {
				"kind": "user",
				"methods": {},
				"version": 1
			}
		}
	}
}